:100000000C9474000C94A5000C94A5000C94A5000D
:100010000C94A5000C94A5000C94A5000C94A500CC
:100020000C94A5000C94A5000C94A5000C94A500BC
:100030000C94A5000C94A5000C94A5000C94A500AC
:100040000C94A5000C94A5000C94A5000C94A5009C
:100050000C9464080C94A5000C94A5000C94650EF7
:100060000C94A5000C94D60F0C94AA100C94A50027
:100070000C94A5000C94A5000C94A5000C94A5006C
:100080000C94A5000C94A5000C94A5000C94A5005C
:100090000C9403100C94F5100C94A5000C94A5007E
:1000A0000C94A5000C94A5000C94A5000C94A5003C
:1000B0000C94A5000C94A5000C94A5000C94A5002C
:1000C0000C94A5000C94A5000C94A5000C94301081
:1000D0000C9440110C94A5000C945D100C948B11A1
:1000E0000C94A500030E541211241FBECFEFD1E2D1
:1000F000DEBFCDBF00E00CBF13E0A0E0B2E0ECEC4F
:10010000FBE200E00BBF02C007900D92A83EB107D2
:10011000D9F71BE0A8EEB3E001C01D92A736B107E6
:10012000E1F710E0C8EED0E000E006C02297010938
:10013000FE010BBF0E94CB13C43ED10780E008072D
:10014000A9F70E9454130C94E4150C940000FC01D0
:10015000DB0182818C93838111968C93119784812A
:1001600012968C931297858113968C9313978681A0
:1001700014968C931497878115968C931597808588
:1001800016968C931697818517968C93179788E00F
:1001900090E00895EF92FF920F931F93FC01DB0113
:1001A0002C9130E040E050E0228333834483558338
:1001B00011966C91119770E080E090E0982F872F56
:1001C000762F6627622B732B842B952B6283738388
:1001D0008483958312962C91129730E040E050E092
:1001E000A90133272227262B372B482B592B228373
:1001F00033834483558313966C91139770E080E0AA
:1002000090E0962F882777276627622B732B842B05
:10021000952B628373838483958314962C91149712
:1002200030E040E050E026833783408751871596C1
:10023000EC901597FF2400E010E0102F0F2DFE2CFE
:10024000EE24E22AF32A042B152BE682F78200879C
:10025000118716962C91169730E040E050E0A901E6
:10026000332722272E293F29402B512B26833783E2
:100270004087518717968C9190E0A0E0B0E0B82FAE
:10028000AA2799278827822B932BA42BB52B86830B
:100290009783A087B18788E090E01F910F91FF902E
:1002A000EF90089580E092E008958EE092E0089546
:1002B000AF92BF92CF92DF92EF92FF920F931F9374
:1002C000CF93DF935C01FB01208130E0DC011396CA
:1002D0003C932E931297918180E0822B932B13965F
:1002E0009C938E93129782819381A481B5818B0117
:1002F0000B5F1F4FE80166E070E026E0C22ED12CB4
:10030000E12CF12CC80ED91EEA1EFB1E04C0298167
:1003100029936F5F7F4F9B0140E050E02C153D0516
:100320004E055F05A0F3AC014A5F5F4F4E0F5F1FA4
:100330009A0121503040E9011882E5011D830C83A8
:10034000EA01C880D980EA80FB80BC01665F7F4FEC
:10035000EC012996CE0FDF1F8B01CB01AA2797FD59
:10036000A095BA2F8C0D9D1DAE1DBF1D04C0298107
:1003700029930F5F1F4F980140E050E0281739077D
:100380004A075B07A0F3EB01CC0DDD1D9F012C0F8D
:100390003D1FC9010197DC011C92615070406E0F36
:1003A0007F1FD50117967C936E931697D901CD9038
:1003B000DD90ED90FC90BE016C5F7F4F2396CE0FD9
:1003C000DF1F8B01CB01AA2797FDA095BA2F8C0DBB
:1003D0009D1DAE1DBF1D04C0298129930F5F1F4FB6
:1003E000980140E050E0281739074A075B07A0F35F
:1003F000C60ED71EDF01AC0DBD1DED012197188281
:10040000615070406E0F7F1FE501798768871196F4
:100410002C91119730E040E050E0542F432F322FC1
:10042000222712966C91129770E080E090E0CB0149
:1004300077276627262B372B482B592B6C9170E09A
:1004400080E090E0262B372B482B592B13968C916C
:1004500090E0A0E0B0E0B82FAA2799278827282BA2
:10046000392B4A2B5B2BF50122873387448755872D
:1004700084E090E0C80ED91EC601DF91CF911F9194
:100480000F91FF90EF90DF90CF90BF90AF900895C5
:100490008FE292E0089588E492E008958F929F920F
:1004A000AF92BF92CF92DF92EF92FF920F931F9382
:1004B000CF93DF936C01FB018081D60112968C9360
:1004C0001297E180F28003811481AB014C5F5F4F92
:1004D000EA0125E030E065E0862E912CA12CB12CBC
:1004E0008E0C9F1CA01EB11E04C0898189932F5FB2
:1004F0003F4FC901A0E0B0E088159905AA05BB05EA
:10050000A0F397012B5F3F4FE20FF31F319710824B
:10051000F60154834383C901DF91CF911F910F915D
:10052000FF90EF90DF90CF90BF90AF909F908F9013
:10053000089589E692E008958CE792E0089584EAB0
:1005400093E008958DE992E00895AF92BF92CF9223
:10055000DF92EF92FF920F931F93CF93DF93FC01F3
:10056000DB012C9130E040E050E022833383448370
:10057000558311966C91119770E080E090E0982F70
:10058000872F762F6627622B732B842B952B628304
:1005900073838483958312962C91129730E040E008
:1005A00050E0A90133272227262B372B482B592B24
:1005B000228333834483558313966C91139770E0A1
:1005C00080E090E0962F882777276627622B732B91
:1005D000842B952B628373838483958314962C914B
:1005E000149730E040E050E02683378340875187FE
:1005F00015966C91159770E080E090E0982F872F0A
:10060000762F6627622B732B842B952B668377833B
:100610008087918716962C91169730E040E050E045
:10062000A90133272227262B372B482B592B26832A
:1006300037834087518717966C91179770E080E059
:1006400090E0962F882777276627622B732B842BC1
:10065000952B668377838087918718962C911897BE
:1006600030E040E050E02287338744875587199671
:100670006C91199770E080E090E0982F872F762F8B
:100680006627622B732B842B952B62877387848755
:1006900095871A962C911A9730E040E050E0A90116
:1006A00033272227262B372B482B592B228733879A
:1006B000448755871B966C911B9770E080E090E013
:1006C000962F882777276627622B732B842B952BF1
:1006D00062877387848795871C96ED90FD900D91B6
:1006E0001C911F97BD01615F7F4FEB0180E190E09E
:1006F00020E1A22EB12CC12CD12CAE0CBF1CC01EEF
:10070000D11E03C02981299301969C0140E050E04D
:100710002A153B054C055D05A8F39701205F3F4F67
:10072000A20FB31F11971C9277876687C901DF91CB
:10073000CF911F910F91FF90EF90DF90CF90BF90DE
:10074000AF9008958EEB92E008958EEC92E00895BC
:100750000F931F93CF93DF938C01EB0102960E94BE
:10076000A502BC01FE01E80FF91F318120E0808164
:1007700090E0822B932BD80153969C938E935297A3
:100780006E5F7F4FFE01E60FF71F318120E0808111
:1007900090E0822B932B55969C938E9354976E5F8B
:1007A0007F4FFE01E60FF71F318120E0808190E04E
:1007B000822B932B57969C938E9356976E5F7F4F09
:1007C000FE01E60FF71F318120E0808190E0822B4F
:1007D000932B59969C938E9358976E5F7F4FFE0193
:1007E000E60FF71F318120E0808190E0822B932B70
:1007F0005B969C938E935A97FB013296DE01AE0F67
:10080000BF1F11963C91119720E08C9190E0822BB4
:10081000932BD8015D969C938E935C973296EC0F48
:10082000FD1F818190E0A0E0B0E0BA2FA92F982FA2
:100830008827228130E040E050E0A90133272227B9
:10084000822B932BA42BB52B208130E040E050E08D
:10085000822B932BA42BB52B238130E040E050E07A
:10086000522F442733272227822B932BA42BB52BDF
:10087000F801868F978FA0A3B1A3FB013896EC0FE8
:10088000FD1F818190E0A0E0B0E0BA2FA92F982F42
:100890008827228130E040E050E0A9013327222759
:1008A000822B932BA42BB52B208130E040E050E02D
:1008B000822B932BA42BB52B238130E040E050E01A
:1008C000522F442733272227822B932BA42BB52B7F
:1008D000F80182A393A3A4A3B5A3645F7F4FCB01C8
:1008E000DF91CF911F910F9108958FEE92E00895BF
:1008F00081E093E00895FC01EE57FB4F808108955D
:10090000CF92DF92EF92FF920F931F93CF93DF93DB
:10091000EC018B018A81DB018C938B8111968C9386
:10092000EC81FD81DF010D900020E9F77D01089445
:10093000E108F108EE1AFF0AC701A0E0B0E0FB01F0
:1009400082839383A483B5839B012A5F3F4F6C818D
:100950007D81C901A7010E94DB15EE81FF81DF01C6
:100960000D900020E9F76D010894C108D108CE1A56
:10097000DF0AF801EE0DFF1DC601A0E0B0E086839E
:100980009783A087B187EAE0F0E0EE0EFF1E9801A2
:100990002E0D3F1D6E817F81C901A6010E94DB15CE
:1009A000EC0CFD1CE885F985DF010D900020E9F7CE
:1009B0006D010894C108D108CE1ADF0AF801EE0DC6
:1009C000FF1DC601A0E0B0E080839183A283B383C2
:1009D000E4E0F0E0EE0EFF1E98012E0D3F1D68854D
:1009E0007985C901A6010E94DB1597012C0D3D1DDB
:1009F0005A854B859C858D85F801E20FF31F508346
:100A00004183928383832C5F3F4FC901DF91CF9154
:100A10001F910F91FF90EF90DF90CF900895EF928C
:100A2000FF92CF93DF93FC018281DB018C93A38142
:100A3000B481ED0109900020E9F72197CA1BDB0B77
:100A40009E0140E050E0DB0111962D933D934D93C4
:100A50005C9314979B012B5F3F4F63817481C901A5
:100A6000AE010E94DB152596CE01DF91CF91FF905C
:100A7000EF9008958F929F92AF92BF92DF92EF9284
:100A8000FF920F931F93CF93DF938C01EB01DC0157
:100A900012968C911297888319821A821B827B018D
:100AA00020E064E070E021C0822F90E0880F991F61
:100AB000880F991FF801A781B085A80FB91F4C9125
:100AC00011963C91119712969C91129713968C91C6
:100AD000D7014C9311963C93119712969C931297C1
:100AE00013968C936C5F7F4F2F5FE4E0F0E0EE0E87
:100AF000FF1ED80112968C9112972817A8F2FE01BA
:100B0000E60FF71F19968C9180836F5F7F4FDE0190
:100B1000A60FB71F1C926F5F7F4FDE01A60FB71F96
:100B20001C926F5F7F4FDE01A60FB71F1C926F5F95
:100B30007F4F7F0120E021C0822F90E0880F991F16
:100B4000880F991FF801A685B785A80FB91F4C918A
:100B500011963C91119712969C91129713968C9135
:100B6000D7014C9311963C93119712969C93129730
:100B700013968C936C5F7F4F2F5FE4E0F0E0EE0EF6
:100B8000FF1ED80119968C9119972817A8F2FE011B
:100B9000E60FF71F50968C91509780836F5F7F4FC1
:100BA000FE01E60FF71F10826F5F7F4FFE01E60F19
:100BB000F71F10826F5F7F4FFE01E60FF71F108255
:100BC0006F5F7F4FDD243AC08D2C9924880C991CCF
:100BD000F80183899489880D991DDC01EC911196A7
:100BE000FC91DF010D900020E9F77D010894E108F8
:100BF000F108EE1AFF0ADE01A60FB71F970140E0C9
:100C000050E02D933D934D935C93139734E0A32EC6
:100C1000B12CA60EB71E9E012A0D3B1DF801A3891B
:100C2000B489A80DB91D6C9111967C91C901A701D9
:100C30000E94DB15B7016A0D7B1DD394D801509635
:100C40008C915097D81608F4BFCFCB01DF91CF918C
:100C50001F910F91FF90EF90DF90BF90AF909F900A
:100C60008F900895EF92FF92CF93DF93FC01DB0109
:100C700082818C93838111968C9311978481129633
:100C80008C931297858113968C9313978681149673
:100C90008C931497878115968C931597808516965B
:100CA0008C931697818517968C9317978285189643
:100CB0008C931897838519968C93199784851A9627
:100CC0008C931A9785851B968C931B9786859785A1
:100CD000EC0109900020E9F72197C81BD90B9E0170
:100CE00040E050E01C962D933D934D935C931F97ED
:100CF0009B01205F3F4F66857785C901AE010E9449
:100D0000DB156096CE01DF91CF91FF90EF900895B3
:100D10000F931F93CF93DF93EC018B0102960E94F8
:100D200032069C019A898B89F801E20FF31F9083A8
:100D300081832E5F3F4F9C898D89F801E20FF31F5D
:100D4000908381832E5F3F4F9E898F89F801E20F48
:100D5000F31F908381832E5F3F4F988D898DF8011B
:100D6000E20FF31F908381832E5F3F4F9A8D8B8D0F
:100D7000F801E20FF31F90838183F90132969C8D75
:100D80008D8DD801AE0FBF1F9C9311968C93119738
:100D900032965E8D4F8D98A189A1E00FF11F50838F
:100DA000418392838383F90138965AA14BA19CA178
:100DB0008DA1E00FF11F5083418392838383245FD1
:100DC0003F4FC901DF91CF911F910F9108956F920D
:100DD0007F928F929F92AF92BF92CF92DF92EF92CB
:100DE000FF920F931F93CF93DF93EC015B01DB0125
:100DF0000C918A81801760F4602F70E0660F771F76
:100E0000660F771F8F8198850E9402158F839887C0
:100E10000A83F50160E034E0C32ED12C8E010D5F12
:100E20001F4F45C0818190E0A0E0B0E0BA2FA92F0C
:100E3000982F8827228130E040E050E0A901332735
:100E40002227822B932BA42BB52B208130E040E06E
:100E500050E0822B932BA42BB52B238130E040E074
:100E600050E0522F442733272227822B932BA42B89
:100E7000B52B8B839C83AD83BE8384E090E0C80E4A
:100E8000D91E862F90E0880F991F880F991F2F81F8
:100E90003885280F391FD8016D907D908D909C90DA
:100EA000D9016D927D928D929C9213976F5F3496CB
:100EB0008A81681708F4B6CF85010C0D1D1DF80155
:100EC00080808985881560F4682D70E0660F771F33
:100ED000660F771F8E859F850E9402158E879F87DC
:100EE00084E090E0C80ED91E8986F80160E08E018A
:100EF000065F1F4F45C0208130E040E050E0818117
:100F000090E0A0E0B0E0BA2FA92F982F8827822B7D
:100F1000932BA42BB52B228130E040E050E0A901B7
:100F200033272227282B392B4A2B5B2B838190E0F8
:100F3000A0E0B0E0B82FAA2799278827822B932B0F
:100F4000A42BB52B8A879B87AC87BD87A4E0B0E034
:100F5000CA0EDB1E862F90E0880F991F880F991FFD
:100F60002E853F85280F391FD8016D907D908D907B
:100F70009C90D9016D927D928D929C9213976F5F98
:100F800034968985681708F4B6CFF501EC0DFD1D80
:100F900000818889801750F4602F70E0660F771FFA
:100FA0008B899C890E9402158B8B9C8BF601349651
:100FB000088B7724B1E18B2E912C8C0E9D1E41C0A5
:100FC000D501AE0FBF1FCD90DD90ED90FC90DF01FD
:100FD00014963396EA0DFB1D8D019D01442737FDC4
:100FE0004095542F2C0D3D1D4E1D5F1D04C0818169
:100FF00081930F5F1F4FB80180E090E06217730785
:1010000084079507A0F3CA0EDB1EC5018C0D9D1D3C
:101010000197FC0110821197AA0DBB1DBA8BA98BF9
:10102000F601872D90E0880F991F2B893C89280FA6
:10103000391FD4018D919C91D90111969C938E9367
:1010400073948889781608F4BBCFCF01DF91CF91D4
:101050001F910F91FF90EF90DF90CF90BF90AF90D6
:101060009F908F907F906F900895CF93DF93FC01B6
:10107000AB0186819781EC01A881B981648175817A
:10108000ED91FC911995DF91CF910895FC0142817A
:10109000538164817581808191810E94D611089568
:1010A00010928000E1E8F0E010828EE19BEF9093D7
:1010B000850080938400808184608083EFE6F0E087
:1010C00080818160808308951F920F920FB60F92E6
:1010D00011248F939F9381E08093B3088EE19BEF5F
:1010E00090938500809384009F918F910F900FBE05
:1010F0000F901F901895FC018EE693E091838083FA
:1011000087EE9AE09383828320E031EE40E050E066
:101110002483358346835783DF01AE57BB4F1C9230
:10112000DF01A057BB4F8CE993E08D939C93DF01C7
:10113000AC5EBB4F89E190E01D921D920197E1F7F3
:10114000DF01AA5BBB4F89E190E01D921D920197E0
:10115000E1F7DF01549680E090E01D92019622E0D5
:1011600080309207D1F7DF01AC5EBD4F80E090E0A8
:101170001D92019622E080309207D1F7DF01AE5632
:10118000BB4F1C92DF01A956BB4F1D921C92DF0181
:10119000A756BB4F1C92E256FB4F11821082089556
:1011A000DB01FC01EC5EFB4F20E030E0419151910E
:1011B00041155105A9F4F901E65FFD4FEE0FFF1F40
:1011C000E80FF91FB183A08323583F4F15963C9336
:1011D0002E93149717969C938E93169781E00895FB
:1011E0002F5F3F4F2931310509F780E00895CF93F4
:1011F000DF93F8940E945008CAEED3E0CE010E941B
:1012000046081092610810926008109263081092CC
:101210006208109267081092660810926508109292
:10122000640882E293E090939E0880939D08CE012B
:10123000029764EB78E00E94D0087894DF91CF9118
:1012400008950F931F93DF93CF93CDB7DEB72A97FF
:101250000FB6F894DEBF0FBECDBF8C0184E893E0DB
:101260009A8389831B821C821D821E821F8218869C
:1012700019861A86D801ED91FC910190F081E02D3C
:10128000C8016AE070E0AE014F5F5F4F19950E94A0
:10129000AD0EF80160877187828793872A960FB613
:1012A000F894DEBF0FBECDBFCF91DF911F910F919C
:1012B00008954F925F926F927F928F929F92AF921A
:1012C000BF92CF92DF92EF92FF920F931F93DF9323
:1012D000CF93CDB7DEB72E970FB6F894DEBF0FBE13
:1012E000CDBF8C0188E793E09A838983B4E1EB2E2C
:1012F000B4E0FB2EE00EF11EA6E46A2EA4E07A2EE6
:10130000600E711E812CF2E09F2EA12CB12C6E017B
:101310000894C11CD11CD701ED91FC911197309715
:10132000A9F1848195819C838B83808191819E83A7
:101330008D8382819381DC01ED91FC910480F581A4
:10134000E02D199598878F83D701ED91FC918281CB
:101350009381DC01ED91FC910680F781E02D1995D8
:101360009A8789878B869C86AD86BE86F8018081A8
:101370009181F701A081B18118966D917C911997A7
:10138000DC01ED91FC91C801A6011995E2E0F0E0C5
:10139000EE0EFF1EE614F70409F0BDCFE6E4EE2ED4
:1013A000E4E0FE2EE00EF11E78E7472E74E0572EA3
:1013B000400E511E812C62E0962EA12CB12C6E01A4
:1013C0000894C11CD11CF701A081B1811097D1F103
:1013D00012968D919C9113979C838B8314968D917B
:1013E0009C9115979E838D83ED91FC9111970480BC
:1013F000F581E02DCD01199598878F83D7018D91C7
:101400009C91DC01ED91FC910680F781E02D19950E
:101410009A8789878B869C86AD86BE86D801ED919A
:10142000FC9160807180F70180819181DC01ED91F8
:10143000FC910280F381E02D1995BC01C801A60141
:10144000F3011995E2E0F0E0EE0EFF1EE414F5045E
:1014500009F0B9CFF801EE57FB4F81E080832E965B
:101460000FB6F894DEBF0FBECDBFCF91DF911F91B5
:101470000F91FF90EF90DF90CF90BF90AF909F9033
:101480008F907F906F905F904F900895CF92DF92F2
:10149000EF92FF920F931F93CF93DF93EC016B01B9
:1014A0000E94AD0EF601E080F18002811381089464
:1014B000E108F1080109110928EE33E040E050E0AD
:1014C0000E949513E21AF30A040B150BEC86FD86B5
:1014D0000E871F87F601E480F5800681178120E0E2
:1014E0003AEC4AE95BE3E20EF31E041F151F20E409
:1014F00032E44FE050E00E946313E61AF70A080B4B
:10150000190BE88AF98A0A8B1B8BBE01605F7F4F3B
:10151000CE010C960E94340EDF91CF911F910F9156
:10152000FF90EF90DF90CF900895AF92BF92CF924F
:10153000DF92EF92FF920F931F93DF93CF93CDB77C
:10154000DEB72A970FB6F894DEBF0FBECDBF5C01A1
:101550006B0184E893E09A8389831B821C821D823D
:101560001E821F82188619861A860E94AD0E7B0184
:101570008C01F50180859185A285B385E81AF90A69
:101580000A0B1B0BCE010196B6010E94CA00C801CE
:10159000B70128EE33E040E050E00E9495137B0154
:1015A0008C018B819C81AD81BE81820F931FA41F12
:1015B000B51F8B839C83AD83BE83C801B70120E434
:1015C00032E44FE050E00E9463139B01AC018F8135
:1015D0009885A985BA85820F931FA41FB51F8F8395
:1015E0009887A987BA87C501BE016D5F7F4F0E94AA
:1015F000460A0E94AD0EF501E957FB4F60837183E7
:10160000828393832A960FB6F894DEBF0FBECDBFB8
:10161000CF91DF911F910F91FF90EF90DF90CF90CE
:10162000BF90AF9008952F923F924F925F926F922A
:101630007F928F929F92AF92BF92CF92DF92EF9262
:10164000FF920F931F93DF93CF93CDB7DEB72E9703
:101650000FB6F894DEBF0FBECDBF9E878D870E9468
:10166000AD0E6B017C01ED85FE85E957FB4F808156
:101670009181A281B381A7019601281B390B4A0BE6
:101680005B0BDA01C901893F3AE2930730E0A30717
:1016900030E0B30728F0ED85FE85EE57FB4F108252
:1016A000ED85FE85E858FB4F80819181009781F0A0
:1016B000AD85BE85A557BB4F8D919D910D90BC9179
:1016C000A02D8C159D05AE05BF0510F4118210826A
:1016D000F0E88F2EF4E09F2E4D855E85840E951EDA
:1016E0008A0108581B4FECE76E2EE4E07E2E640E54
:1016F000751E74E1472E512C440E551E40575B4F0A
:101700005A8349838D859E8581579B4F9C838B830C
:101710006AE7A62E64E0B62EAD85BE85AA0EBB1E76
:101720005EE7252E54E0352E2A0E3B1EAE57BB4FEA
:10173000BE83AD83ED85FE85E557FB4FF887EF83CC
:10174000A70196012C5E3F4F4F4F5F4F29873A8785
:101750004B875C87C8010D851E859E878D87D801C4
:1017600012968D919C911397DC01ED91FC9106806E
:10177000F781E02D19959C0197FD17C1F401808137
:101780009181820F931F91838083AD85BE854D919A
:101790005C91119747305105B9F4F1018081918135
:1017A000F801E80FF91F248B0196D10111969C9343
:1017B0008E93F501808191810197918380830097B9
:1017C00071F6E8E0F0E04BC041155105A9F42F3F58
:1017D000310529F6E1E0F0E0AD85BE85ED93FC939F
:1017E00029853A854B855C85AF81B8852D933D93DE
:1017F0004D935C931397B3CF41305105A9F42E3F1D
:10180000310519F422E030E06FC0AD85BE85119638
:101810001C921E92ED81FE818081882309F09FCF6A
:10182000C8010E9421099BCF4230510551F4D501D6
:1018300011963C932E93F10111821082E3E0F0E0C7
:101840002FC04330510589F4322F2227F5018081C2
:101850009181280F391F31832083E4E0F0E0AD85CA
:10186000BE851196FC93EE937ACF4430510581F4F6
:1018700060E071E00E9482138F3F910519F4E5E06A
:10188000F0E0EDCFAD85BE8511961C921E9267CF1C
:101890004530510571F4F30131832083E6E0F0E037
:1018A000AD85BE85ED93FC93D40111963C932E93A8
:1018B00056CF46305105E9F4322F2227F3018081BB
:1018C0009181280F391F31832083E7E0F0E0AD8557
:1018D000BE85ED93FC93D5018D919C911197009756
:1018E00009F03DCF28E030E0ED85FE85318320838F
:1018F00036CF4830510509F032CFAD85BE851196FF
:101900001C921E9260E071E00E9482138F3F91054D
:1019100009F025CFD301ED91FC9111973097E1F4B7
:101920001E870D87C8010E9421098D859E850E9412
:101930005909ED85FE85ED57FB4FC082D182E282C9
:10194000F382ED85FE85E957FB4FC082D182E282AA
:10195000F3822FEF3FEF54C0EA30F10529F4C801BC
:10196000B2010E94950AFBCEE630F10551F489815F
:101970009A81B2010E94E70621E0EB81FC8120837D
:10198000EECEE154FE4FEE0FFF1FE00FF11F8081FE
:101990009181009709F4E3CEDC01ED91FC91019077
:1019A000F081E02DB2011995DACE1E870D87F8017E
:1019B000EE57FB4F8081882309F10D571B4FF8012B
:1019C00080819181A281B381A7019601281B390BE7
:1019D0004A0B5B0BDA01C901853C39E0930730E023
:1019E000A30730E0B30750F08D859E850E94210942
:1019F000D801CD92DD92ED92FC92139720E030E079
:101A0000C9012E960FB6F894DEBF0FBECDBFCF91A1
:101A1000DF911F910F91FF90EF90DF90CF90BF90DB
:101A2000AF909F908F907F906F905F904F903F907E
:101A30002F9008958091B308882381F18CED95E073
:101A40009093A00880939F0884E29AEF9093A20855
:101A50008093A10888EB9BE09093A4088093A3084F
:101A600088EC90E09093A6088093A50888E39FEF08
:101A70009093A8088093A7088CE291E09093AA081D
:101A80008093A90884EB98E06DE878E00E9435081F
:101A900088EE93E00E94130B1092B3080895DF9331
:101AA000CF9300D00F920F92CDB7DEB720E933E08D
:101AB0003A8329836B835D834C83DC01ED91FC9138
:101AC0000190F081E02D67E070E0AE014F5F5F4F65
:101AD00019950F900F900F900F900F90CF91DF916D
:101AE0000895AB0163E00E944F0D0895CF92DF92FD
:101AF000EF92FF920F931F93CF93DF93EC017B0143
:101B0000CA01643671053CF0FE01EE57FB4F20819F
:101B1000222309F46CC0DC01ED91FC91BE01655EED
:101B20007D4F0190F081E02D1995FE01EC5EFD4F97
:101B30002FEF2083FE01EB5EFD4F2EEF2083FE0191
:101B4000EA5EFD4F8083FE01E95EFD4F1082FE01DB
:101B5000E85EFD4F282F20952083FE01E75EFD4FB4
:101B6000E082DE01A65EBD4F1C9245E050E020E021
:101B700030E0BC016A5F7F4F05C0A1912A0F311D83
:101B80004F5F5F4F64177507C4F7FE01E80FF91F39
:101B9000E55EFD4F209520838C01085F1F4FB2E06A
:101BA00001301B07E4F4A4E1CA2EA2E0DA2ECC0E29
:101BB000DD1EEE24FF240FC08A819B81F601619116
:101BC0006F01DC01ED91FC910190F081E02D199500
:101BD0000894E11CF11CE016F10674F30AC0CE0172
:101BE00067E273E00E94710D0FEF1FEF02C000E08B
:101BF00010E0C801DF91CF911F910F91FF90EF90FE
:101C0000DF90CF90089588EE93E00E947B0884ECEB
:101C100093E090938E0880938D0880ED93E09093ED
:101C2000900880938F081092950810929608109251
:101C30009708109298081092990810929A0810929A
:101C40009B0810929C0880E693E09093B5088093DF
:101C5000B4088DE898E09093B7088093B608109286
:101C6000BD081092BC080895CF92DF92EF92FF92C8
:101C70000F931F93CF93DF93EC016B01FB01608106
:101C800071818281938120E03AEC4AE95BE30E9412
:101C900095137B018C0188819981AA81BB81820F78
:101CA000931FA41FB51F88839983AA83BB83F60162
:101CB000E082F18202831383DF91CF911F910F9114
:101CC000FF90EF90DF90CF9008951F920F920FB684
:101CD0000F9211242F933F938F939F93AF93BF93B2
:101CE0008091C2089091C308A091C408B091C50822
:101CF0003091C6080196A11DB11D232F2D5F2D37F0
:101D000020F02D570196A11DB11D2093C608809388
:101D1000C2089093C308A093C408B093C5088091EB
:101D2000BE089091BF08A091C008B091C10801966B
:101D3000A11DB11D8093BE089093BF08A093C00859
:101D4000B093C108BF91AF919F918F913F912F9117
:101D50000F900FBE0F901F9018958FB7F894209199
:101D6000C2083091C3084091C4085091C5088FBF84
:101D7000B901CA010895789484B5826084BD84B5A0
:101D8000816084BD85B5826085BD85B5816085BD76
:101D9000EEE6F0E0808181608083E1E8F0E010828F
:101DA000808182608083808181608083E0E8F0E0D0
:101DB000808181608083E1EBF0E0808184608083BA
:101DC000E0EBF0E0808181608083E1E9F0E08081F8
:101DD00082608083808181608083E0E9F0E080819F
:101DE00081608083E1EAF0E080818260808380818D
:101DF00081608083E0EAF0E0808181608083E1E2BD
:101E0000F1E0808182608083808181608083E0E274
:101E1000F1E0808181608083EAE7F0E08081846086
:101E200080838081826080838081816080838081E3
:101E3000806880831092C1000895FC018485958597
:101E4000FC01E05CFF4F208131818E5B9F4FFC01E4
:101E500080819181281B390B2F733070C90108953F
:101E6000FC0184859585FC01E05CFF4F4081518138
:101E7000FC01EE5BFF4F208131814217530741F097
:101E80000190F081E02DE80FF91F208130E002C0C1
:101E90002FEF3FEFC9010895FC0184859585FC0172
:101EA000E05CFF4F40815181FC01EE5BFF4F2081E0
:101EB00031814217530771F0A081B181A80FB91F7A
:101EC0002C918081918101968F7390709183808392
:101ED00030E002C02FEF3FEFC9010895DC011E96EC
:101EE0008D919C911F97FC01E05CFF4F8E5B9F4F93
:101EF00040815181DC012D913C911197421753078C
:101F0000B9F708951F93FC01162F26853785D9014F
:101F1000A05CBF4F8D919C91019660E470E00E949F
:101F20008213D901AE5BBF4F4D915C91119784171D
:101F30009507D1F3D901A05CBF4F0D90BC91A02DA6
:101F4000A20FB31F1C93A685B785A05CBF4F119647
:101F50009C938E93A689B7892C9181E090E0058CA3
:101F600002C0880F991F0A94E2F7282B2C9381E076
:101F700090E01F910895FB01E05CFF4F20813181CB
:101F80002F5F3F4F2F733070DB01AE5BBF4F4D9122
:101F90005C9111972417350739F0A081B181A60F04
:101FA000B71F8C9331832083089508951F920F9259
:101FB0000FB60F920BB60F9211242F933F934F93AE
:101FC0005F936F937F938F939F93AF93BF93EF93A1
:101FD000FF938091C60067EC78E00E94BB0FFF91F1
:101FE000EF91BF91AF919F918F917F916F915F9191
:101FF0004F913F912F910F900BBE0F900FBE0F90FE
:102000001F90189508951F920F920FB60F920BB65E
:102010000F9211242F933F934F935F936F937F936E
:102020008F939F93AF93BF93EF93FF938091CE00D5
:102030006FE479E00E94BB0FFF91EF91BF91AF91E8
:102040009F918F917F916F915F914F913F912F91D0
:102050000F900BBE0F900FBE0F901F901895089514
:102060001F920F920FB60F920BB60F9211242F935F
:102070003F934F935F936F937F938F939F93AF9310
:10208000BF93EF93FF938091D60067ED79E00E94B4
:10209000BB0FFF91EF91BF91AF919F918F917F9176
:1020A0006F915F914F913F912F910F900BBE0F90C9
:1020B0000FBE0F901F90189508951F920F920FB6A4
:1020C0000F920BB60F9211242F933F934F935F9370
:1020D0006F937F938F939F93AF93BF93EF93FF93F0
:1020E000809136016FE57AE00E94BB0FFF91EF917E
:1020F000BF91AF919F918F917F916F915F914F9120
:102100003F912F910F900BBE0F900FBE0F901F901D
:10211000189587EE9AE00E941D0F009711F00E941B
:10212000D50F86E09BE00E941D0F009711F00E94E2
:10213000021085E29BE00E941D0F009711F00E94A3
:102140002F1084E49BE00E941D0F009711F00E9465
:102150005C1008951F920F920FB60F920BB60F925C
:1021600011242F933F935F936F937F938F939F934C
:10217000AF93BF93EF93FF9320914B0930914C099C
:1021800080914D0990914E092817390731F48091BB
:10219000C1008F7D8093C10016C0E0914D09F09180
:1021A0004E09E55FF64F208180914D0990914E09CF
:1021B000019660E470E00E94821390934E09809330
:1021C0004D092093C600FF91EF91BF91AF919F9170
:1021D0008F917F916F915F913F912F910F900BBEE7
:1021E0000F900FBE0F901F9018951F920F920FB671
:1021F0000F920BB60F9211242F933F935F936F931F
:102200007F938F939F93AF93BF93EF93FF9320910F
:10221000D3093091D4098091D5099091D609281716
:10222000390731F48091C9008F7D8093C90016C0B1
:10223000E091D509F091D609ED56F64F20818091B5
:10224000D5099091D609019660E470E00E9482134E
:102250009093D6098093D5092093CE00FF91EF91FA
:10226000BF91AF919F918F917F916F915F913F91BE
:102270002F910F900BBE0F900FBE0F901F901895CF
:102280001F920F920FB60F920BB60F9211242F933D
:102290003F935F936F937F938F939F93AF93BF937E
:1022A000EF93FF9320915B0A30915C0A80915D0A65
:1022B00090915E0A2817390731F48091D1008F7D03
:1022C0008093D10016C0E0915D0AF0915E0AE55E50
:1022D000F54F208180915D0A90915E0A019660E43D
:1022E00070E00E94821390935E0A80935D0A2093AF
:1022F000D600FF91EF91BF91AF919F918F917F9108
:102300006F915F913F912F910F900BBE0F900FBE79
:102310000F901F9018951F920F920FB60F920BB649
:102320000F9211242F933F935F936F937F938F931B
:102330009F93AF93BF93EF93FF932091E30A309164
:10234000E40A8091E50A9091E60A2817390731F4EA
:10235000809131018F7D8093310116C0E091E50AB3
:10236000F091E60AED55F54F20818091E50A9091B4
:10237000E60A019660E470E00E9482139093E60AF8
:102380008093E50A20933601FF91EF91BF91AF91C1
:102390009F918F917F916F915F913F912F910F90BE
:1023A0000BBE0F900FBE0F901F901895DF92EF920B
:1023B000FF920F931F93CF93DF93EC017A018B0170
:1023C000DD24D394403081EE580780E0680780E038
:1023D000780749F4DD24EC89FD89108260E874E80F
:1023E0008EE190E00FC0EC89FD8981E090E00E8CD9
:1023F00002C0880F991F0A94E2F7808360E079E0B9
:102400008DE390E0A80197010E9495132150304080
:1024100040405040569547953795279580E12030AC
:10242000380710F0DD20B1F6E889F9893083EA89B0
:10243000FB892083EE89FF89408181E090E09C0147
:102440000A8C02C0220F331F0A94E2F7422B40830A
:10245000EE89FF8940819C010B8C02C0220F331F43
:102460000A94E2F7422B4083EE89FF8940819C0168
:102470000C8C02C0220F331F0A94E2F7422B4083D8
:10248000EE89FF8920810D8C02C0880F991F0A9464
:10249000E2F7809582238083DF91CF911F910F9186
:1024A000FF90EF90DF9008951F93CF93DF931092EA
:1024B000EA0A1092E90A88EE93E0A0E0B0E0809387
:1024C000EB0A9093EC0AA093ED0AB093EE0AE9EEC2
:1024D000FAE02CED33E03293229347EC58E0558735
:1024E00044874BE059E05787468745EC50E0518BD5
:1024F000408B44EC50E0538B428B40EC50E0558BCA
:10250000448B41EC50E0578B468B46EC50E0518FAA
:10251000408F14E0128F73E0738F67E0648F55E093
:10252000558F41E0468F1092090B1092080B809353
:102530000A0B90930B0BA0930C0BB0930D0BE8E0E0
:10254000FBE032932293CFE4D9E0D587C487C3E977
:10255000D9E0D787C687CDECD0E0D18BC08BCCEC4F
:10256000D0E0D38BC28BC8ECD0E0D58BC48BC9EC48
:10257000D0E0D78BC68BCEECD0E0D18FC08F128F3E
:10258000738F648F558F468F1092280B1092270BF4
:102590008093290B90932A0BA0932B0BB0932C0BB9
:1025A000E7E2FBE032932293C7EDD9E0D587C487F9
:1025B000CBE1DAE0D787C687C5EDD0E0D18BC08B01
:1025C000C4EDD0E0D38BC28BC0EDD0E0D58BC48BF3
:1025D000C1EDD0E0D78BC68BC6EDD0E0D18FC08FD8
:1025E000128F738F648F558F468F1092470B109206
:1025F000460B8093480B9093490BA0934A0BB093E2
:102600004B0BE6E4FBE0329322938FE59AE095874B
:10261000848783EA9AE09787868785E391E0918BA8
:10262000808B84E391E0938B828B80E391E0958BA8
:10263000848B81E391E0978B868B86E391E0918F89
:10264000808F128F738F648F558F468FDF91CF915C
:102650001F910895CF92DF92EF92FF920F931F93F5
:10266000CF93DF936C017B018A01C0E0D0E00FC003
:10267000D7016D917D01D601ED91FC910190F08122
:10268000E02DC6011995C80FD91F01501040011542
:10269000110571F7CE01DF91CF911F910F91FF903E
:1026A000EF90DF90CF900895CF93DF930E94BB0E01
:1026B0000E94F708C9E8D0E10E941A0D2097E1F3C3
:1026C0000E948910F9CF629FD001739FF001829F11
:1026D000E00DF11D649FE00DF11D929FF00D839FB1
:1026E000F00D749FF00D659FF00D9927729FB00D4E
:1026F000E11DF91F639FB00DE11DF91FBD01CF0161
:102700001124089597FB092E07260AD077FD04D0DF
:102710002ED006D000201AF4709561957F4F089551
:10272000F6F7909581959F4F0895A1E21A2EAA1B66
:10273000BB1BFD010DC0AA1FBB1FEE1FFF1FA21771
:10274000B307E407F50720F0A21BB30BE40BF50B6E
:10275000661F771F881F991F1A9469F760957095F7
:10276000809590959B01AC01BD01CF010895AA1BF6
:10277000BB1B51E107C0AA1FBB1FA617B70710F06C
:10278000A61BB70B881F991F5A95A9F7809590959E
:10279000BC01CD0108950790F691E02D1994CF93D7
:1027A000DF938230910510F482E090E0E091650BB8
:1027B000F091660B40E050E020E030E026C0608100
:1027C000718168177907E0F06817790781F48281D1
:1027D00093812115310531F0D90113969C938E9385
:1027E00012972BC09093660B8093650B26C0411502
:1027F000510519F06417750718F4AB01E901DF0101
:102800009F0172816381E72FF62F3097C1F6411542
:10281000510501F1481B590B4430510580F41296C3
:102820008D919C911397209719F09B838A8304C004
:102830009093660B8093650BFD01329646C0FD01B7
:10284000E40FF51F819391934250504011965C9391
:102850004E933BC02091630B3091640B21153105E1
:1028600041F420916603309167033093640B209309
:10287000630B20916803309169032115310541F400
:102880002DB73EB74091640350916503241B350B6F
:10289000E091630BF091640BE217F307A0F42E1B99
:1028A0003F0B2817390778F0AC014E5F5F4F2417B4
:1028B000350748F04E0F5F1F5093640B4093630B36
:1028C0008193919302C0E0E0F0E0CF01DF91CF91DE
:1028D0000895CF93DF93009709F491C0FC013297DC
:1028E000138212826091650B7091660B6115710500
:1028F00081F420813181280F391F8091630B9091E1
:10290000640B8217930799F5F093640BE093630BC4
:1029100076C0DB0180E090E002C0CD01D901AE17A6
:10292000BF0748F412962D913C911397211531055C
:10293000A1F7CD0121C0B383A283EF014991599141
:102940009E01240F351FA217B30779F42D913C91F6
:102950001197240F351F2E5F3F4F3183208312962E
:102960002D913C91139733832283009729F4F093A0
:10297000660BE093650B43C0DC011396FC93EE936A
:1029800012974D915D91A40FB51FEA17FB0769F4EB
:1029900020813181240F351F2E5F3F4FEC01398399
:1029A0002883228133813B832A83E0E0F0E002C068
:1029B000FB01BC01DB0112968D919C91139700974E
:1029C000B9F79B012E5F3F4F8D919C911197820F1C
:1029D000931F4091630B5091640B4817590779F48A
:1029E000309729F41092660B1092650B02C0138287
:1029F0001282225030403093640B2093630BDF919E
:102A0000CF9108958F929F92AF92BF92CF92DF9213
:102A1000EF92FF920F931F93CF93DF938C01CB0123
:102A20000115110529F40E94CF13082F192FB5C0E5
:102A3000D80112979801260F371F2A173B0708F471
:102A4000AAC0ED90FC901197E616F706D0F045E08D
:102A5000E416F10408F4A1C0A70144505040461701
:102A6000570708F49AC0A70142505040461B570B25
:102A7000F901419351936D937C93CF010E946914A6
:102A80008CC05B01AE18BF0848018E0C9F1CE09102
:102A9000650BF091660BCC24DD24C0E0D0E041C092
:102AA000E815F90599F560817181AB014E5F5F4FC3
:102AB0004A155B0558F1AB014A195B09CC24DD24AA
:102AC0006894C1F8C40ED51E8280A380E5E0CE16BE
:102AD000D10448F0F9018282A38251834083119688
:102AE0009C938E9309C0C7010296860F971F11967B
:102AF0009C938E93E82DFA2D209719F0FB83EA839F
:102B00004CC0F093660BE093650B47C04081518148
:102B1000C416D50608F46A01EF0152814381E52FFE
:102B2000F42F309709F0BCCF4091630B5091640BA8
:102B300048155905E9F4C816D906D0F44091680340
:102B4000509169034115510541F44DB75EB760914D
:102B5000640370916503461B570B24173507D8F49F
:102B60003093640B2093630B11969C938E9315C046
:102B70000E94CF13C82EE6016E01D92EE6012097E0
:102B800051F08C2DB801A7010E94DB15C8010E94ED
:102B90006914860102C000E010E0C801DF91CF9106
:102BA0001F910F91FF90EF90DF90CF90BF90AF906B
:102BB0009F908F900895FB01DC0102C001900D925F
:0C2BC00041505040D8F70895F894FFCF22
:102BCC007374645F6D7367732F54696D6500636410
:102BDC0037313636633734633535326333313166EA
:102BEC00626363326665356137626332383900720D
:102BFC006F7373657269616C5F6D7367732F546F5C
:102C0C00706963496E666F0036336161356538668D
:102C1C0031626464366633356336396665316131E9
:102C2C00623964323865396600726F737365726924
:102C3C00616C5F6D7367732F4C6F6700313161622C
:102C4C00643733316332353933333236316364367A
:102C5C00313833626431326436323935003966309A
:102C6C0065393862646136353938313938366464DF
:102C7C00663533616661376134306534390073749D
:102C8C00645F6D7367732F486561646572003231E0
:102C9C0037366465636165636263653738616263A7
:102CAC003362393665663034396661626564006159
:102CBC00726475696E6F5F6D7367732F496D7536CE
:102CCC00003264313363333166343731613430620E
:102CDC006362303731643238373661653235613290
:102CEC0030002F696D75004D6573736167652066E3
:102CFC00726F6D206465766963652064726F7070A5
:102D0C0065643A206D657373616765206C617267E9
:102D1C006572207468616E206275666665722E003D
:102D2C00696D75002000670B000000000000760D37
:102D3C00130B7B04000000008004580148024B0276
:102D4C0000000000A700CA0052015501000000005D
:102D5C000F054E0299029C02000000003A05E7069E
:102D6C009F02A202726F7373657269616C5F6D73FF
:102D7C0067732F52657175657374506172616D0064
:102D8C00000000008806A803750478040000000009
:102D9C003206A502A203A50300000000820F2A132D
:082DAC001D0F4C0F300F6E0FDC
:00000001FF
