:100000000C9404010C9435010C9435010C943501C9
:100010000C9435010C9435010C9435010C94350188
:100020000C9435010C9435010C9435010C94350178
:100030000C9435010C9435010C9435010C94350168
:100040000C9435010C9435010C9435010C94350158
:100050000C9435010C9435010C9435010C94650415
:100060000C9435010C94C1060C9495070C94350141
:100070000C9435010C9435010C9435010C94350128
:100080000C9435010C9435010C9435010C94350118
:100090000C94EE060C94E0070C9435010C940B03C1
:1000A0000C9435010C9435010C9435010C943501F8
:1000B0000C9435010C9435010C9435010C943501E8
:1000C0000C9435010C9435010C9435010C941B07EC
:1000D0000C942B080C9435010C9448070C9476086A
:1000E0000C94350100002100240027002A002D0077
:1000F0003000330001010000040107010A01000083
:100100002200250028002B002E00310034000201BF
:100110000000050108010B0100002000230026005B
:1001200029002C002F00320000010000030106010D
:10013000090105050505070508080808020202026D
:100140000A0A080804040404010101010101010173
:100150000303030303030303040707070C0C0C0C3E
:100160000C0C0C0C02020202060606060606060627
:100170000B0B0B0B0B0B0B0B0102102020080810B4
:100180002040102040800201020108040201010207
:1001900004081020408080402010080402018004E0
:1001A000020180402010080402010804020101023B
:1001B0000408102040800102040810204080000044
:1001C000090A02080B0C0D070603040100000000D9
:1001D000000000000000000000000000000000001F
:1001E0000000000000000000000011100F000000DF
:1001F00000000000000000000000000000000000FF
:100200000000000069023F0911241FBECFEFD1E2B8
:10021000DEBFCDBF00E00CBF12E0A0E0B2E0E4ED35
:10022000F6E100E00BBF02C007900D92A639B107BE
:10023000D9F715E0A6E9B2E001C01D92A93FB107C8
:10024000E1F712E0C8E0D2E000E006C02297010921
:10025000FE010BBF0E94640BC430D10780E0080789
:10026000A9F70E940C0B0C94680B0C940000CF9320
:10027000DF938CED92E00E944402CDE7D5E0CE0101
:1002800040E855E260E070E00E94C108CE0160E005
:1002900072E00E94700ADF91CF9108951F93CF936F
:1002A000DF938DE795E06DE072E00E94700AC0E098
:1002B000D0E011E08CED92E0612F0E944F028CEDB6
:1002C00092E00E9459028823E9F48DE795E069E104
:1002D00072E00E94500A103130F48DE795E068E337
:1002E00072E00E94500A8DE795E0612F40E150E0F6
:1002F0000E94EC0A8DE795E06AE372E00E94700AC2
:10030000219617C08430A9F48DE795E06EE372E082
:100310000E94500A103130F48DE795E068E372E0F6
:100320000E94500A8DE795E0612F40E150E00E9465
:10033000F40A1F5F1F3709F0BDCF209729F48DE71E
:1003400095E069E572E004C08DE795E06FE672E044
:100350000E94700A68E873E180E090E00E94D30494
:10036000DF91CF911F9108952091B70230E08091E5
:10037000B602281B3109C90108958091B6029091F7
:10038000B702891750F4E82FF0E0EA56FD4F2081BC
:1003900030E08F5F8093B60202C02FEF3FEFC901BC
:1003A0000895E091B6028091B702E81730F4F0E0CA
:1003B000EA56FD4F208130E002C02FEF3FEFC90128
:1003C00008950895CF92DF92EF92FF920F931F93BB
:1003D000CF93DF936C01CB01EA012091DB02222352
:1003E000B1F0E62EF92E00E010E00DC0D7016D91BE
:1003F0007D01D601ED91FC910190F081E02DC601C7
:1004000019950F5F1F4F0C171D0780F303C0642F52
:100410000E94D902CE01DF91CF911F910F91FF90E1
:10042000EF90DF90CF900895DF93CF930F92CDB7E9
:10043000DEB769832091DB022223D1F02091DA021A
:10044000203240F021E030E0FC013383228320E0C1
:1004500030E015C08091D902E82FF0E0E754FD4F5D
:10046000998190838F5F8093D9028093DA0205C0CF
:10047000CE01019661E00E94D90221E030E0C9017D
:100480000F90CF91DF9108951092B6021092B702AB
:100490001092D9021092DA020E948002089581E03F
:1004A0008093DB026093B8021092D9021092DA02B4
:1004B00008958091B80269EB72E04091DA0221E080
:1004C0000E9499021092D9021092DA021092DB0275
:1004D00008951092DF021092DE0288EE93E0A0E011
:1004E000B0E08093E0029093E102A093E202B09327
:1004F000E30289E792E09093DD028093DC020895A5
:1005000010920C0384E161E00E94D00585E161E076
:100510000E94D005E9EBF0E080818E7F80838081AE
:100520008D7F808388E48093B80085E48093BC004D
:1005300008954132B0F590910C039923E1F792E0D0
:1005400090930C039FEF90930B031092E90240935A
:10055000EA02DB01EBEEF2E050E04E0F5F1F02C05B
:100560009D919193E417F507D9F790E0880F991FB3
:100570008093E80285EE8093BC00222321F08091D5
:100580000C038230E1F380910B038F3F61F0809187
:100590000B03803251F080910B03803341F483E0F0
:1005A000089581E0089580E0089582E0089584E050
:1005B00008956132A0F420910C03243091F46093EB
:1005C0003103DC01E4E3F3E070E06E0F7F1F02C053
:1005D0008D918193E617F707D9F780E0089581E0C0
:1005E000089582E00895882311F085EC01C085E824
:1005F0008093BC00089585ED8093BC008091BC0081
:1006000084FDFCCF10920C03089585EC8093BC0010
:1006100010920C0308951F920F920FB60F920BB613
:100620000F9211242F933F934F935F936F937F9378
:100630008F939F93AF93BF93EF93FF938091B900F4
:1006400090E0887F90708036910509F4C2C08136B1
:100650009105E4F58832910509F47EC0893291054F
:10066000C4F48031910509F472C08131910544F4DC
:10067000009709F413C18830910509F013C167C0D0
:100680008831910509F468C08032910509F00AC1EA
:1006900078C08034910509F48AC0813491054CF406
:1006A0008033910509F46FC08833910509F0FAC0D1
:1006B0006EC08035910509F46EC08835910509F446
:1006C0007BC08834910509F0EDC0EAC088399105F6
:1006D00009F4DAC089399105ECF48837910509F4F9
:1006E00078C0893791054CF48836910509F471C0BA
:1006F0008037910509F0D6C06CC08838910509F49F
:10070000C3C08039910509F46AC08038910509F0A9
:10071000C9C065C0803B910509F48EC0813B91053D
:100720004CF4803A910509F46CC0883A910509F0BF
:10073000B9C082C0803C910509F4AAC0883C9105EB
:1007400009F4A6C0883B910509F0ACC08AC080912D
:10075000E8028093BB0013C09091E9028091EA0205
:10076000981708F09DC08091E902E82FF0E0E5516C
:10077000FD4F90819093BB008F5F8093E90281E0F1
:1007800084C080E201C080E380930B0389C088E3CA
:1007900080930B034EC08091E9029091BB00E82F3B
:1007A000F0E0E551FD4F90838F5F8093E9029091D7
:1007B000E9028091EA0265C08091E9029091BB0054
:1007C000E82FF0E0E551FD4F90838F5F8093E902C1
:1007D00067C083E080930C0310920D03D0CF80910B
:1007E0000D03803208F050C080910D039091BB0042
:1007F000E82FF0E0E25FFC4F90838F5F80930D0362
:10080000BECF80910D03803230F4E0910D03F0E013
:10081000E25FFC4F10820E94FB0260910D03E091A9
:100820002E03F0912F038EE093E070E01995109263
:100830000D030E94050336C084E080930C031092E0
:10084000300310923103E0913203F0913303199594
:1008500080913103882329F481E080933103109241
:10086000340380913003E82FF0E0EC5CFC4F908182
:100870009093BB008F5F8093300390913003809101
:100880003103981708F47BCF80E00E94F3020AC07E
:1008900081E00E94F30210920C0304C010920B033B
:1008A0000E94FB02FF91EF91BF91AF919F918F91B9
:1008B0007F916F915F914F913F912F910F900BBE60
:1008C0000F900FBE0F901F9018951F920F920FB6AA
:1008D0000F9211242F933F938F939F93AF93BF93C6
:1008E0008091580390915903A0915A03B0915B03F2
:1008F00030915C030196A11DB11D232F2D5F2D3773
:1009000020F02D570196A11DB11D20935C0380930B
:10091000580390935903A0935A03B0935B038091BB
:10092000540390915503A0915603B091570301963B
:10093000A11DB11D8093540390935503A0935603BA
:10094000B0935703BF91AF919F918F913F912F919A
:100950000F900FBE0F901F9018959FB7F89420919D
:10096000540330915503409156035091570386B577
:10097000A89B06C08F3F21F02F5F3F4F4F4F5F4F27
:100980009FBF542F432F322F2227280F311D411D87
:10099000511D82E0220F331F441F551F8A95D1F746
:1009A000B901CA010895EF92FF920F931F93CF935D
:1009B000DF937B018C010E94AD04EB010FC00E940C
:1009C000AD046C1B7D0B83E0683E780738F008941B
:1009D000E108F10801091109C851DC4FE114F104E3
:1009E0000105110561F7DF91CF911F910F91FF90E4
:1009F000EF900895789484B5826084BD84B5816059
:100A000084BD85B5826085BD85B5816085BDEEE616
:100A1000F0E0808181608083E1E8F0E010828081F5
:100A200082608083808181608083E0E8F0E0808163
:100A300081608083E1EBF0E0808184608083E0EB83
:100A4000F0E0808181608083E1E9F0E08081826074
:100A50008083808181608083E0E9F0E08081816033
:100A60008083E1EAF0E08081826080838081816020
:100A70008083E0EAF0E0808181608083E1E2F1E060
:100A8000808182608083808181608083E0E2F1E008
:100A9000808181608083EAE7F0E0808184608083E8
:100AA0008081826080838081816080838081806892
:100AB00080831092C1000895893009F449C08A30BA
:100AC000A0F4843051F1853040F4823079F18330E4
:100AD00000F5813009F063C026C0873079F1883095
:100AE00098F5863009F05BC025C08D3009F442C00E
:100AF0008E3028F48B30B1F18C30C0F52DC08031B0
:100B000009F442C0813109F445C08F3009F047C073
:100B100037C0809180008F7703C0809180008F7DE7
:100B200080938000089584B58F7702C084B58F7D4F
:100B300084BD08958091B0008F7703C08091B0008C
:100B40008F7D8093B0000895809190008F7707C0CB
:100B5000809190008F7D03C080919000877F80936B
:100B6000900008958091A0008F7707C08091A00029
:100B70008F7D03C08091A000877F8093A00008959F
:100B8000809120018F7703C0809120018F7D809319
:100B90002001089580912001877F8093200108958E
:100BA0000F931F93DF93CF930F92CDB7DEB7282F0C
:100BB00030E0F901E254FE4F8491F901E858FE4F0C
:100BC00014912E5C3E4FF90104910023D9F0882343
:100BD00021F069830E945C056981E02FF0E0EE0F4F
:100BE000FF1FE250FF4F85919491DC019FB7F8946D
:100BF000662321F48C911095812302C08C91812B66
:100C00008C939FBF0F90CF91DF911F910F9108950B
:100C1000FC0184859585FC01E05CFF4F20813181DA
:100C20008E5B9F4FFC0180819181281B390B2F73B4
:100C30003070C9010895FC0184859585FC01E05C54
:100C4000FF4F40815181FC01EE5BFF4F20813181DC
:100C50004217530741F00190F081E02DE80FF91F92
:100C6000208130E002C02FEF3FEFC9010895FC0161
:100C700084859585FC01E05CFF4F40815181FC013A
:100C8000EE5BFF4F208131814217530771F0A08145
:100C9000B181A80FB91F2C918081918101968F732A
:100CA00090709183808330E002C02FEF3FEFC90145
:100CB0000895DC011E968D919C911F97FC01E05CCC
:100CC000FF4F8E5B9F4F40815181DC012D913C9104
:100CD000119742175307B9F708951F93FC01162F78
:100CE00026853785D901A05CBF4F8D919C910196D7
:100CF00060E470E00E941B0BD901AE5BBF4F4D91C9
:100D00005C91119784179507D1F3D901A05CBF4F6F
:100D10000D90BC91A02DA20FB31F1C93A685B78583
:100D2000A05CBF4F11969C938E93A689B7892C9196
:100D300081E090E0058C02C0880F991F0A94E2F7C9
:100D4000282B2C9381E090E01F910895FB01E05C3B
:100D5000FF4F208131812F5F3F4F2F733070DB01B8
:100D6000AE5BBF4F4D915C9111972417350739F059
:100D7000A081B181A60FB71F8C9331832083089582
:100D800008951F920F920FB60F920BB60F92112477
:100D90002F933F934F935F936F937F938F939F9383
:100DA000AF93BF93EF93FF938091C6006DE573E01F
:100DB0000E94A606FF91EF91BF91AF919F918F91F5
:100DC0007F916F915F914F913F912F910F900BBE4B
:100DD0000F900FBE0F901F90189508951F920F92BD
:100DE0000FB60F920BB60F9211242F933F934F9390
:100DF0005F936F937F938F939F93AF93BF93EF9383
:100E0000FF938091CE0065EE73E00E94A606FF91ED
:100E1000EF91BF91AF919F918F917F916F915F9172
:100E20004F913F912F910F900BBE0F900FBE0F90DF
:100E30001F90189508951F920F920FB60F920BB640
:100E40000F9211242F933F934F935F936F937F9350
:100E50008F939F93AF93BF93EF93FF938091D600AF
:100E60006DE674E00E94A606FF91EF91BF91AF91ED
:100E70009F918F917F916F915F914F913F912F91B2
:100E80000F900BBE0F900FBE0F901F9018950895F6
:100E90001F920F920FB60F920BB60F9211242F9341
:100EA0003F934F935F936F937F938F939F93AF93F2
:100EB000BF93EF93FF938091360165EF74E00E943A
:100EC000A606FF91EF91BF91AF919F918F917F9176
:100ED0006F915F914F913F912F910F900BBE0F90AB
:100EE0000FBE0F901F9018958DE795E00E940806A1
:100EF000009711F00E94C0068CE995E00E94080658
:100F0000009711F00E94ED068BEB95E00E94080619
:100F1000009711F00E941A078AED95E00E940806DA
:100F2000009711F00E94470708951F920F920FB685
:100F30000F920BB60F9211242F933F935F936F93F1
:100F40007F938F939F93AF93BF93EF93FF932091E2
:100F5000E1033091E2038091E3039091E4032817C9
:100F6000390731F48091C1008F7D8093C10016C094
:100F7000E091E303F091E403EF55FC4F2081809171
:100F8000E3039091E403019660E470E00E941B0B80
:100F90009093E4038093E3032093C600FF91EF91C5
:100FA000BF91AF919F918F917F916F915F913F9191
:100FB0002F910F900BBE0F900FBE0F901F901895A2
:100FC0001F920F920FB60F920BB60F9211242F9310
:100FD0003F935F936F937F938F939F93AF93BF9351
:100FE000EF93FF932091690430916A0480916B0420
:100FF00090916C042817390731F48091C9008F7DD6
:101000008093C90016C0E0916B04F0916C04E75D19
:10101000FB4F208180916B0490916C04019660E4F9
:1010200070E00E941B0B90936C0480936B042093E0
:10103000CE00FF91EF91BF91AF919F918F917F91E2
:101040006F915F913F912F910F900BBE0F900FBE4C
:101050000F901F9018951F920F920FB60F920BB61C
:101060000F9211242F933F935F936F937F938F93EE
:101070009F93AF93BF93EF93FF932091F10430912F
:10108000F2048091F3049091F4042817390731F4A5
:101090008091D1008F7D8093D10016C0E091F30440
:1010A000F091F404EF54FB4F20818091F304909170
:1010B000F404019660E470E00E941B0B9093F4042A
:1010C0008093F3042093D600FF91EF91BF91AF91ED
:1010D0009F918F917F916F915F913F912F910F9091
:1010E0000BBE0F900FBE0F901F9018951F920F927E
:1010F0000FB60F920BB60F9211242F933F935F936D
:101100006F937F938F939F93AF93BF93EF93FF93CF
:101110002091790530917A0580917B0590917C052D
:101120002817390731F4809131018F7D8093310187
:1011300016C0E0917B05F0917C05E75CFA4F2081B9
:1011400080917B0590917C05019660E470E00E949F
:101150001B0B90937C0580937B0520933601FF91B8
:10116000EF91BF91AF919F918F917F916F915F911F
:101170003F912F910F900BBE0F900FBE0F901F90BD
:101180001895DF92EF92FF920F931F93CF93DF9307
:10119000EC017A018B01DD24D394403081EE5807B5
:1011A00080E0680780E0780749F4DD24EC89FD8958
:1011B000108260E874E88EE190E00FC0EC89FD8950
:1011C00081E090E00E8C02C0880F991F0A94E2F72C
:1011D000808360E079E08DE390E0A80197010E94B0
:1011E0002E0B215030404040504056954795379542
:1011F000279580E12030380710F0DD20B1F6E8892E
:10120000F9893083EA89FB892083EE89FF8940814F
:1012100081E090E09C010A8C02C0220F331F0A94E7
:10122000E2F7422B4083EE89FF8940819C010B8CC1
:1012300002C0220F331F0A94E2F7422B4083EE894B
:10124000FF8940819C010C8C02C0220F331F0A943D
:10125000E2F7422B4083EE89FF8920810D8C02C08A
:10126000880F991F0A94E2F7809582238083DF918B
:10127000CF911F910F91FF90EF90DF9008951F93F2
:10128000CF93DF931092800510927F0588EE93E054
:10129000A0E0B0E08093810590938205A093830540
:1012A000B0938405EFE7F5E029E832E0329322932A
:1012B0004DE553E05587448741EA53E05787468719
:1012C00045EC50E0518B408B44EC50E0538B428B0B
:1012D00040EC50E0558B448B41EC50E0578B468BF3
:1012E00046EC50E0518F408F14E0128F73E0738F03
:1012F00067E0648F55E0558F41E0468F10929F055F
:1013000010929E058093A0059093A105A093A2053D
:10131000B093A305EEE9F5E032932293C5EED3E056
:10132000D587C487C9E2D4E0D787C687CDECD0E0A3
:10133000D18BC08BCCECD0E0D38BC28BC8ECD0E08F
:10134000D58BC48BC9ECD0E0D78BC68BCEECD0E06C
:10135000D18FC08F128F738F648F558F468F1092ED
:10136000BE051092BD058093BF059093C005A09364
:10137000C105B093C205EDEBF5E032932293CDE6C3
:10138000D4E0D587C487C1EBD4E0D787C687C5ED45
:10139000D0E0D18BC08BC4EDD0E0D38BC28BC0ED3D
:1013A000D0E0D58BC48BC1EDD0E0D78BC68BC6ED1A
:1013B000D0E0D18FC08F128F738F648F558F468F7F
:1013C0001092DD051092DC058093DE059093DF0519
:1013D000A093E005B093E105ECEDF5E032932293A4
:1013E00085EF94E09587848789E395E097878687E2
:1013F00085E391E0918B808B84E391E0938B828BEA
:1014000080E391E0958B848B81E391E0978B868BD1
:1014100086E391E0918F808F128F738F648F558F49
:10142000468FDF91CF911F910895CF92DF92EF9277
:10143000FF920F931F93CF93DF936C017B018A017F
:10144000C0E0D0E00FC0D7016D917D01D601ED91D4
:10145000FC910190F081E02DC6011995C80FD91FAC
:10146000015010400115110571F7CE01DF91CF91A8
:101470001F910F91FF90EF90DF90CF900895DB01C7
:101480000D900020E9F7AD0141505040461B570B2D
:10149000DC01ED91FC910280F381E02D1995089516
:1014A0000E943F0A0895DC01ED91FC910190F081CA
:1014B000E02D199508950F931F93CF93DF93EC01BF
:1014C0006DE00E94530A8C01CE016AE00E94530A2B
:1014D000080F191FC801DF91CF911F910F91089537
:1014E0000F931F93CF93DF93EC010E943F0A8C016F
:1014F000CE010E945B0A080F191FC801DF91CF912E
:101500001F910F9108958F929F92AF92BF92CF92A9
:10151000DF92EF92FF920F931F93DF93CF93CDB79C
:10152000DEB7A1970FB6F894DEBF0FBECDBF6C013A
:10153000042FE52FCB01122F19A2223008F41AE054
:1015400021E2E22EF12CEC0EFD1E812E9924AA241C
:10155000BB2403C0022FE32FCA01602F7E2FA501F9
:1015600094010E942E0B129F802D1124081B0894B9
:10157000E108F1080A3014F4005D01C0095CF701CC
:101580000083211531054105510521F7C601B70139
:101590000E943F0AA1960FB6F894DEBF0FBECDBFE2
:1015A000CF91DF911F910F91FF90EF90DF90CF903F
:1015B000BF90AF909F908F9008952115310549F409
:1015C000DC01ED91FC910190F081E02D642F1995E3
:1015D00008950E94830A08959A01462F50E060E022
:1015E00070E00E94DD0A08950F931F93CF93DF935D
:1015F000EC019A01462F50E060E070E00E94DD0AA5
:101600008C01CE010E945B0A080F191FC801DF91EF
:10161000CF911F910F910895CF93DF930E94FA0409
:101620000E943701C4E7D7E00E944E012097E1F302
:101630000E947407F9CF97FB092E07260AD077FD81
:1016400004D02ED006D000201AF4709561957F4FFB
:101650000895F6F7909581959F4F0895A1E21A2E6F
:10166000AA1BBB1BFD010DC0AA1FBB1FEE1FFF1F46
:10167000A217B307E407F50720F0A21BB30BE40B96
:10168000F50B661F771F881F991F1A9469F76095DD
:101690007095809590959B01AC01BD01CF01089597
:1016A000AA1BBB1B51E107C0AA1FBB1FA617B70788
:1016B00010F0A61BB70B881F991F5A95A9F78095A4
:1016C0009095BC01CD0108950790F691E02D1994F5
:0416D000F894FFCFBC
:1016D4000A493243205363616E6E6572005363613D
:1016E4006E6E696E672E2E2E004932432064657635
:1016F40069636520666F756E64206174206164643B
:101704007265737320307800300020202100556EFC
:101714006B6E6F77206572726F72206174206164E2
:101724006472657373203078004E6F204932432011
:101734006465766963657320666F756E640A006418
:101744006F6E650A00000000001402E201B401BDDE
:1017540001D101E101000000006D06150A080637F9
:06176400061B06590600F9
:00000001FF
