:100000000C94D0080C9401090C9401090C9401097A
:100010000C9401090C9401090C9401090C94010938
:100020000C9401090C9401090C9401090C94010928
:100030000C9408420C9401090C9401090C940109D8
:100040000C9401090C949E280C9401090C9401094C
:100050000C9401090C9401090C9401090C94FB45C2
:100060000C9401090C9497490C946B4A0C94010967
:100070000C9401090C9401090C9401090C940109D8
:100080000C94CC280C9401090C9401090C940109DE
:100090000C94C4490C94B64A0C9401090C94A144E4
:1000A0000C9401090C9401090C94FA280C94010990
:1000B0000C9401090C9401090C9401090C94010998
:1000C0000C9401090C9401090C9401090C94F14958
:1000D0000C94014B0C9401090C941E4A0C944C4B4B
:1000E0000C940109036EDB363D9A9999993DABAAB0
:1000F000AA2A3E000000803F084AD73B3BCE016E53
:1001000084BCBFFDC12F3D6C74319ABD56833DDA6E
:100110003D00C77F11BED9E4BB4C3E916BAAAABE7D
:10012000000000803F072C7AA5BA6CC590DA3B939B
:1001300065FC8BBC53F810FD3C5692834DBD879DEA
:100140003AB63DCBC9BF5BBE73DA0FC93F05A84CB9
:10015000CDB2D44EB93836A9020C50B99186880870
:100160003CA6AAAA2ABE000000803F4C4947503A4C
:10017000004C4947543A006D746172673A006D6FE4
:10018000746F72733A006C6F673A4D6F746F7220C0
:1001900043616C6C6962726174696F6E20436F6D4C
:1001A000706C6574653B006C6F673A4D6F746F726D
:1001B0002043616C6C6962726174696F6E20537464
:1001C0006172696E673B006C6F673A657363706F4D
:1001D0007765723D006D74726D6F643A00705F6593
:1001E000723A006C6F673A686F6C64207075736860
:1001F000696E6720636F6D6D616E643B0064705F54
:1002000065723A006C6F673A64686F6C6420707551
:100210007368696E6720636F6D6D616E643B007417
:100220006470743A006C6F673A64686F6C645F6501
:100230006E61626C6564206F6E3D006C6F673A643E
:10024000657074685F686F6C645F64697361626C29
:1002500065643B00746864673A006C6F673A686F66
:100260006C645F656E61626C6564206F6E3D006CEE
:100270006F673A686F6C645F64697361626C656430
:100280003B006C6F673A70696C6F742073657475AE
:100290007020636F6D706C6574653B00646C6D738A
:1002A0003A0074656D703A00707265733A00746953
:1002B0006D653A00342E352E33002C200031353A4E
:1002C00034343A3532002C20004D6179202034201E
:1002D0003230313400636D70643A00435553544FEB
:1002E0004D5F4255494C44007665723A0061746D29
:1002F000703A00696F75743A00766F75743A0066EB
:100300006D656D3A0073746172673A007365727659
:100310006F3A006D6F746F724174746163686564E5
:100320003A00667468723A007961773A00726F6CCD
:100330006C3A00706974633A00646561703A0068F1
:100340006467643A006C6F673A646F6E650A3B00DD
:100350006C6F673A4E6F204932432064657669635B
:10036000657320666F756E640A3B006C6F673A5563
:100370006E6B6E6F77206572726F72206174206190
:10038000646472657373203078006C6F673A493229
:10039000432064657669636520666F756E642061CD
:1003A000742061646472657373203078006C6F67C9
:1003B0003A5363616E6E696E672E2E2E3B00434189
:1003C00050413A0077617465725F747970650064BA
:1003D0006561645A6F6E655F6D61787C006465610C
:1003E000645A6F6E655F6D696E7C00736D6F6F74BC
:1003F00068696E67496E6372696D656E747C002A08
:1004000073657474696E67733A00415643433A00EA
:10041000425244563A00425432493A004254314919
:100420003A00425244493A00534333493A00534355
:1004300032493A00534331493A00425244543A0057
:10044000636D643A0070757368636D643A20636D20
:100450006474657874204D554E474544213B0069CE
:10046000636D643A0000007000000000240000008A
:10047000020003000000650054FFEF0000FA800056
:100480000B12820001030C30C30E8C8CE914D54092
:100490000213710F8E3883F8833000F883258EF8AD
:1004A000833000F883FFFFFFFF0FFEA9D62400046E
:1004B000001A8279A10000003CFFFF00000010003C
:1004C0000038836FA2003E03304000000002CAE300
:1004D000093E8000002000000000000000400000F5
:1004E0000060000000000C0000000C186E00000608
:1004F000920A16C0DFFFFF0256FD8CD377FFE1C4DE
:1005000096E0C5BEAA00000000FFFF0B2B000016FE
:1005100057000003594000000000001DFA00026C63
:100520001D000000003FFFDFEB003EB3B6000D22D0
:100530007800002F3C00000000001942B50000398F
:10054000A20000B365D90E9FC91DCF4C3430000006
:1005500000500000003BB67AE80064000000C800CC
:100560000000000000100000001000FA92100022AD
:100570005E000D229F0001000000320000FF4600D7
:100580000063D400001000000004D6000004CC007A
:100590000004CC00000000107200000040000000C9
:1005A0000000000000000600020005000700000037
:1005B00000006400000000000000000005000500CD
:1005C0006400200000000000000000000000004067
:1005D000000000030000000032F8980000FF6500F2
:1005E00000830F0000FF9BFC0000000000000000E3
:1005F00000000000000000000000000000000000FB
:1006000000000000000000000000000000000000EA
:10061000000000100040000000000000060000B2D2
:100620006A000200000001FB830068000000D9FCA2
:10063000007CF1FF830000000000650000006403FF
:10064000E800640028000000250000000016A0005B
:10065000000000100000001000002F00000000014A
:10066000F40000100000280000FFFF4581FFFFFAA2
:10067000720000000000000000004400050005BA00
:10068000C6004778A200000001000000000000063C
:1006900000000000140000254D002F706D000005C3
:1006A000AE000C02D00000000000000000000000BE
:1006B0000000000000001B0000000000000000001F
:1006C00000000000000064000000080000000000BE
:1006D000000000000000000000000000000000001A
:1006E000000000000000000000000000000000000A
:1006F00000000000000000000000000000000000FA
:1007000000000000000000000000000000000000E9
:1007100000000000000000000000000000000000D9
:100720000000000000001B000000000000000000AE
:1007300000000E000E00000AC700040000000000C8
:1007400032FFFFFF9C00000B2B00000002000000A6
:100750000100000064FFE500000000000000000050
:100760000000000000000000010000000000010087
:1007700000000000000001800000018000000180F6
:1007800000002426D3000000000000000000060046
:10079000100096003C000000000000000000000077
:1007A00000000000000C0A4E68CDCF770950166794
:1007B00059C619CE820000000000000000000000B1
:1007C0000000000000000000000000000017D784B7
:1007D00000030000000000000000000000C7938F2D
:1007E0009D1E1B1C190000000000000000000000FE
:1007F00000000000000000000000000000020318DC
:10080000850000400000000003000000030000001D
:100810000000000000400000000000000000000098
:1008200000000000000000000000000000000000C8
:1008300000000000000000000000000000000000B8
:10084000000000000000000000677DDF7E72902E37
:10085000554CF6E688000000000000000000000093
:100860000000000000D8DCB4B8B0D8B9ABF3F8FA97
:10087000B3B7BB8E9EAEF132F51BF1B4B8B0809722
:10088000F1A9DFDFDFAADFDFDFF2AAC5CDC7A90C40
:10089000C92C97F1A989264666B28999A92D557D5B
:1008A000B0B08AA896365676F1BAA3B4B280C0B872
:1008B000A89711B28398BAA3F0240844106418B220
:1008C000B9B49883F1A329557DBAB5B1A38393F048
:1008D000002850F5B2B6AA839328547CF1B9A382BC
:1008E0009361BAA2DADEDFDB819AB9AEF560687097
:1008F000F1DABAA2DFD9BAA2FAB9A38292DB31BA8D
:10090000A2D9BAA2F8DF85A4D0C1BBAD83C2C5C746
:10091000B8A2DFDFDFBAA0DFDFDFD8D8F1B8AAB333
:100920008DB4980D355DB2B6BAAF8C96198F9FA76E
:100930000E161EB49AB8AA872C547CBAA4B08AB6F4
:1009400091325676B28494A4C808CDD8B8B4B0F128
:100950009982A82D557D98A80E161EA22C547C9223
:10096000A4F02C5078F184A898C4CDFCD80DDBA855
:10097000FC2DF3D9BAA6F8DABAA6DED8BAB2B68692
:1009800096A6D0F3C841DAA6C8F8D8B0B4B882A801
:1009900092F52C548898F135D9F418D8F1A2D0F8F2
:1009A000F9A884D9C7DFF8F883C5DADF69DF83C126
:1009B000D8F40114F1A8824EA884F311D182F5D99C
:1009C00092289788F109F41C1CD884A8F3C0F9D1A7
:1009D000D99782F129F40DD8F3F9F9D1D982F4C26B
:1009E00003D8DEDF1AD8F1A2FAF9A88498D9C7DFB4
:1009F000F8F8F883C7DADF69DFF883C3D8F40114A5
:100A0000F198A8822EA884F311D182F5D99250973B
:100A100088F109F41CD884A8F3C0F8F9D1D99782D9
:100A2000F149F40DD8F3F9F9D1D982F4C403D8DE31
:100A3000DFD8F1AD8898CCA809F9D98292A8F57CC5
:100A4000F1883ACF944A6E98DB6931DAADF2DEF97B
:100A5000D88795A8F221D1DAA5F9F417D9F1AE8E8D
:100A6000D0C0C3AE82C684C3A88595C8A588F2C08D
:100A7000F1F4010EF18E9EA8C63E56F554F188722F
:100A8000F40115F19845856EF58E9E0488F1429823
:100A90005A8E9E068869F4011CF1981E1108D0F543
:100AA00004F11E970202983625DBF9D985A5F3C11A
:100AB000DA85A5F3DFD88595A8F309DAA5FAD882F7
:100AC00092A8F578F1881A849F26889821DAF41D77
:100AD000F3D8879F39D1AFD9DFDFFBF9F40CF3D816
:100AE000FAD0F8DAF9F9D0DFD9F9D8F40BD8F387CE
:100AF0009F39D1AFD9DFDFF41DF3D8FAFCA869F92B
:100B0000F9AFD0DADEFAD9F88F9FA8F1CCF398DBF1
:100B100045D9AFDFD0F8D8F18F9FA8CAF38809DA9A
:100B2000AF8FCBF8D8F2AD978D0CD9A5DFF9BAA667
:100B3000F3FAF412F2D8950DD1D9BAA6F3FADAA5E0
:100B4000F2C1BAA6F3DFD8F1BAB2B68696A6D0CA79
:100B5000F349DAA6CBF8D8B0B4B8D8AD84F2C0DF88
:100B6000F18FCBC3A8B2B68696C8C1CBC3F3B0B4DD
:100B70008898A821DB718D9D71859521D9ADF2FAF8
:100B8000D88597A828D9F408D8F28D29DAF405D9A0
:100B9000F285A4C2F2D8A88D9401D1D9F411F2D86B
:100BA0008721D8F40AD8F28498A8C801D1D9F411C1
:100BB000D8F3A4C8BBAFD0F2DEF8F8F8F8F8F8F82C
:100BC000F8D8F1B8F6B5B9B08A95A3DE3CA3D9F848
:100BD000D85CA3D9F8D87CA3D9F8D8F8F9D1A5D98D
:100BE000DFDAFAD8B18530F7D9DED8F830ADDADE01
:100BF000D8F2B48C99A32D557DA083DFDFDFB591AA
:100C0000A0F629D9FBD8A0FC29D9FAD8A0D051D96F
:100C1000F8D8FC51D9F9D879D9FBD8A0D0FC79D92A
:100C2000FAD8A1F9F9F9F9F9A0DADFDFDFD8A1F8EC
:100C3000F8F8F8F8ACDEF8ADDE8393AC2C547CF118
:100C4000A8DFDFDFF69D2CDAA0DFD9FADB2DF8D89C
:100C5000A850DAA0D0DED9D0F8F8F8DB55F8D8A83B
:100C600078DAA0D0DFD9D0FAF8F8F8F8DB7DF8D838
:100C70009CA88CF530DB38D9D0DEDFA0D0DEDFD801
:100C8000A848DB58D9DFD0DEA0DFD0DED8A868DBEB
:100C900070D9DFDFA0DFDFD8F1A888902C547C98D2
:100CA000A8D05C38D1DAF2AE8CDFF9D8B087A8C111
:100CB000C1B188A8C6F9F9DA36D8A8F9DA36D8A8C1
:100CC000F9DA36D8A8F9DA36D8A8F9DA36D8F78DAD
:100CD0009DADF818DAF2AEDFD8F7ADFA30D9A4DE60
:100CE000F9D8F2AEDEFAF983A7D9C3C5C7F1889B5C
:100CF000A77AADF7DEDFA4F8849408A797F300AED7
:100D0000F29819A488C6A39488F632DFF28393DBA5
:100D100009D9F2AADFD8D8AEF8F9D1DAF3A4DEA760
:100D2000F1889B7AD8F38494AE19F9DAAAF1DFD866
:100D3000A881C0C3C5C7A39283F628ADDED9F8D871
:100D4000A350ADD9F8D8A378ADD9F8D8F8F9D1A186
:100D5000DADEC3C5C7D8A18194F818F2B089ACC354
:100D6000C5C7F1D8B8B4B09786A8319B069907AB30
:100D70009728889BF00C201440B0B4B8F0A88A9A49
:100D8000285078B79BA82951792470594469386450
:100D90004831F1BBAB88002C547CF0B38BB8A8046D
:100DA000285078F1B088B49726A85998BBABB38B7C
:100DB00002264666B0B8F08A9CA82951798B295141
:100DC000798A2470598B2058718A4469388B39404C
:100DD000688A6448318B30496088F1AC002C547CBF
:100DE000F08CA804285078F1889726A85998AC8CE4
:100DF00002264666F0899CA82951792470594469D5
:100E000038644831A98809205970AB11384069A865
:100E1000193148608CA83C415C207C00F18798190E
:100E200086A86E767EA999882D557DD8B1B5B9A3CF
:100E3000DFDFDFAED0DFAAD0DEF2ABF8F9D9B087C2
:100E4000C4AAF1DFDFBBAFDFDFB9D8B1F1A3978E62
:100E500060DFB084F2C8F8F9D9DED89385F14AB1E1
:100E600083A308B5839A0810B79F10D8F1B0BAAE23
:100E7000B08AC2B2B68E9EF1FBD9F41DD8F9D90C56
:100E8000F1D8F8F8AD61D9AEFBD8F40CF1D8F8F888
:100E9000AD19D9AEFBDFD8F416F1D8F8AD8D61D914
:100EA000F4F4ACF59C9C8DDF2BBAB6AEFAF8F40BDB
:100EB000D8F1AED0F8AD51DAAEFAF8F1D8B9B1B692
:100EC000A3839C08B9B1839AB5AAC0FD3083B79FAC
:100ED00010B58B93F20202D1ABDADED8F1B080BA52
:100EE000ABC0C3B284C1C3D8B1B9F38BA391B60967
:100EF000B4D9ABDEB0879CB9A3DDF1B38B8B8B8B00
:100F00008BB087A3A3A3A3B28BB69BF2A3A3A3A387
:100F1000A3A3A3A3A3A3F1B087B59AA3F39BA3A311
:100F2000DCBAACDFB9A3A3A3A3A3A3A3A3A3A3A3E6
:100F3000A3A3A3A3A3D8D8D8BBB3B7F1AAF9DAFF68
:100F4000D9809AAA28B48098A720B79787A86688DE
:100F5000F07951F1902C870CA781976293F0717111
:100F60006085940129517990A5F1284C6C870C95E6
:100F7000188578A38390284C6C886CD8F3A28200E3
:100F8000F210A8921980A2F2D926D8F188A84DD9DA
:100F900048D896A83980D93CD89580A839A6869893
:100FA000D92CDA87A72CD8A8899519A980D938D83F
:100FB000A88939A980DA3CD8A82EA83990D90CD8AC
:100FC000A8953198D90CD8A809D9FFD801DAFFD84B
:100FD0009539A9DA26FFD890A80D8999A81080988C
:100FE00021DA2ED88999A83180DA2ED8A8869631B0
:100FF00080DA2ED8A8873180DA2ED8A88292F341E1
:1010000080F1D92ED8A882F31980F1D92ED882ACDC
:10101000F3C0A28022F1A62EA72EA92298A829DA31
:10102000ACDEFFD8A2F22AF1A92E8292A8F231807A
:10103000A696F1D900AC8C9C0C30ACDED0DEFFD88B
:101040008C9CACD010ACDE8092A2F24C82A8F1CA8B
:10105000F235F19688A6D900D8F1FF616C70733A29
:101060000000002100240027002A002D003000335A
:101070000001010000040107010A0100002200250F
:101080000028002B002E0031003400020100000572
:101090000108010B01000020002300260029002C7C
:1010A000002F0032000001000003010601090105C4
:1010B000050505070508080808020202020A0A08D1
:1010C00008040404040101010101010101030303F7
:1010D0000303030303040707070C0C0C0C0C0C0C94
:1010E0000C0202020206060606060606060B0B0B9B
:1010F0000B0B0B0B0B0102102020080810204010D6
:1011000020408002010201080402010102040810CB
:1011100020408080402010080402018004020180E9
:101120004020100804020108040201010204081012
:1011300020408001020408102040800000090A02BB
:10114000080B0C0D0706030401000000000000005E
:10115000000000000000000000000000000000008F
:101160000000000000000011100F0000000000004F
:10117000000000000000000000000000000000006F
:101180000000FC108825D227AF2CD72EF738594104
:10119000F442C943154C01118D25B42CDC2EF942C3
:1011A00011241FBECFEFD1E2DEBFCDBF00E00CBFE8
:1011B00015E0A0E0B2E0E8E9F0EB00E00BBF02C010
:1011C00007900D92A63EB107D9F711E1A6EEB5E062
:1011D00001C01D92A63DB107E1F711E1C6E9D1E1D9
:1011E00000E006C022970109FE010BBF0E945A557C
:1011F000C238D10780E00807A9F70E94EB500C9491
:101200003A580C940000FC01808118167CF0882369
:1012100081F48181181684F0882389F4828118165C
:101220008CF0882391F026E030E011C020E030E01F
:101230000EC024E030E00BC021E030E008C025E023
:1012400030E005C022E030E002C027E030E0C90114
:101250000895FC01E957FF4F21E02083FC01EA5784
:10126000FF4F208388579F4FFC0110820895FC0197
:10127000E857FF4F608308952F923F924F925F92FD
:101280006F927F928F929F92AF92BF92CF92DF9296
:10129000EF92FF920F931F93DF93CF93CDB7DEB7FB
:1012A0002E970FB6F894DEBF0FBECDBF7C017887B6
:1012B0006F835A013A8729871C870B878C0108574F
:1012C0001F4FD8018C9190E00E944111F80180815C
:1012D00090E00E94023C29853A85253631050CF0C4
:1012E00039C2121613060CF035C2F701E557FF4F4D
:1012F00088EE93E0B9010E940A55882777FD809512
:10130000982F60837183828393830E944346F70101
:10131000E157FF4F60837183828393838F81988528
:10132000A3E0893E9A070CF015C2181619060CF0B6
:1013300011C2F701E757FF4FB182A082F701ED56C6
:10134000FF4F80E090E0DC0180839183A283B38330
:10135000F701E956FF4F80839183A283B383B701DE
:101360006A597F4FF80180810E942A10882309F46E
:101370005AC1F701E859FF4F31E0808191818130F6
:10138000910509F030E0F701EA57FF4F2081232350
:101390002083F701EA58FF4F31E08081918181304D
:1013A000910509F030E0F701E957FF4F8080832273
:1013B0008082222309F47AC0F701E459FF4F0081AB
:1013C0001181F701E659FF4F60817181882777FD10
:1013D0008095982F9801442737FD4095542F620F30
:1013E000731F841F951FA2E0AA2EB12CC12CD12CF3
:1013F000A60195010E943F55F701E556FF4F318345
:101400002083F701E356FF4F021B130B1183008368
:10141000F701E059FF4F00811181F701E259FF4FB9
:1014200060817181882777FD8095982F98014427E6
:1014300037FD4095542F620F731F841F951FA6011F
:1014400095010E943F55F701E156FF4F31832083FC
:10145000F701EF55FF4F021B130B11830083F701B8
:10146000EC58FF4F00811181F701EE58FF4F60816A
:101470007181882777FD8095982F9801442737FD43
:101480004095542F620F731F841F951FA60195016D
:101490000E943F55F701ED55FF4F31832083F7013F
:1014A000EB55FF4F021B130B11830083882009F4B7
:1014B000C2C0FDEA6F2E712C6E0C7F1CF701E8583C
:1014C000FF4F60817181882777FD8095982F970164
:1014D00026583F4F3E872D87D9012D913C914427B7
:1014E00037FD4095542F620F731F841F951FE2E054
:1014F000AE2EB12CC12CD12CA60195010E943F55D6
:1015000050954095309521953F4F4F4F5F4FF301D8
:10151000208331834283538361EB462E512C4E0C42
:101520005F1CF701E458FF4F60817181882777FDC8
:101530008095982F5EE7252E312C2E0C3F1CD10173
:101540002D913C91442737FD4095542F620F731F16
:10155000841F951FA60195010E943F555095409507
:10156000309521953F4F4F4F5F4FF20120833183DC
:101570004283538387010B541F4FF701E058FF4FFD
:1015800060817181882777FD8095982F42E8842EAD
:10159000912C8E0C9F1CD4012D913C91442737FD3A
:1015A0004095542F620F731F841F951FA60195014C
:1015B0000E943F5550954095309521953F4F4F4F94
:1015C0005F4FF8012083318342835383C3010E941C
:1015D0007C12F701E955FF4FD3018D919C91AD85A8
:1015E000BE852D913C91820F931F91838083F701DB
:1015F000E755FF4FD2018D919C91D1012D913C91E6
:10160000820F931F91838083F701E555FF4FD80127
:101610008D919C91D4012D913C911197820F931F34
:101620009183808308C0F701EA57FF4F1082F701CA
:10163000E957FF4F1082F701EA57FF4F8081882357
:1016400031F086E591E160E072E00E94B14DF70172
:10165000E957FF4F8081882331F086E591E16EE004
:1016600072E00E94B14D0E948D111A8219821C8273
:101670001B821D8281E08E83CE0101960E94BD19DE
:101680008C01009729F086E591E16EE172E015C0CA
:1016900089E70E94F91788E70E94E11586E591E144
:1016A0006AE372E00E94B14D0E94203C8C010097D9
:1016B00071F086E591E16BE472E00E946B4D86E586
:1016C00091E1B8014AE050E00E94C34E43C082E17C
:1016D00095E00E9403098C0185E195E00E940309D1
:1016E0007C0188E195E00E94030933E0EE0CFF1CC9
:1016F0003A95E1F726E0880F991F2A95E1F7E82A45
:10170000F92AC701802B912B0E942B3C80E791E0A6
:101710000E94DB3D8F8198850E94063D81E00E94FA
:101720007C1E009739F086E591E169E672E00E943F
:10173000B14D10C08F8198850E94471989859A857F
:101740000E94A215EB85FC85309731F0CF010E94F5
:10175000581502C080E001C081E02E960FB6F894C3
:10176000DEBF0FBECDBFCF91DF911F910F91FF90D4
:10177000EF90DF90CF90BF90AF909F908F907F9031
:101780006F905F904F903F902F9008952F923F92CF
:101790004F925F926F927F928F929F92AF92BF9281
:1017A000CF92DF92EF92FF920F931F93DF93CF932D
:1017B000CDB7DEB7C454D0400FB6F894DEBF0FBE2D
:1017C000CDBF6C019AE4292E312C2C0C3D1CF60166
:1017D00082A993A9A4A9B5A9F10180839183A283C9
:1017E000B3839601225B3F4FF60186A997A9A0AD6E
:1017F000B1ADB058F90180839183A283B383F60120
:10180000EE5AFF4F0F2EF0E0EF2EF0E0FF2EF0E04B
:101810000F2FF0E01F2FF02DE082F182028313835F
:1018200081E2A82EB12CAC0EBD1EC101B5010E94F3
:10183000B733F601ED56FF4F80819181A281B381CC
:1018400025968CAF9DAFAEAFBFAF2597D601DA9688
:101850004D905D906D907C90DD97408251826282C8
:101860007382E982FA820B831C83F601EC5BFF4FE3
:1018700060817181882777FD8095982F0E94C352DF
:101880006D837E838F839887F601EA5BFF4F6081CB
:101890007181882777FD8095982F0E94C3526987B0
:1018A0007A878B879C87F601E85BFF4F60817181A7
:1018B000882777FD8095982F0E94C3526D877E8779
:1018C0008F87988B11E3E12EF12CEC0EFD1EC501E4
:1018D000B7010E941535B1E18B2E912C8C0E9D1E07
:1018E0008E010F5F1F4FC801B701A4010E9442354E
:1018F000C501B401A8010E94423569857A858B85AE
:101900009C852D813E814F8158850E94CE514B018F
:101910005C01B7FAB094B7F8B094C501B401A50161
:1019200094010E942152882339F086E591E162E812
:1019300072E00E94B14D31C1C501B40120E030E038
:10194000A9010E94215287FF0CC0C501B4012BEDF3
:101950003FE049EC50E40E944451862E972EA82E79
:10196000B92E860109561F4F25966CAD7DAD8EAD03
:101970009FAD2597A30192010E944351F801208158
:101980003181428153810E9444517B01182F092FDC
:1019900098017F2D832F922F2BED3FE049EC50E4EF
:1019A0000E94FD53181674F498016E2D7F2D832F1D
:1019B000922F2BED3FE049EC50E40E9443517B0114
:1019C000182F092F98016E2D7F2D832F902F20E047
:1019D00030E0A9010E94215287FF0EC098016E2DB0
:1019E0007F2D832F902F2BED3FE049EC50E40E9498
:1019F00044517B01182F092FC501B401F8012E2D88
:101A00003F2D4F2F502F0E944351B62EA72E4C0131
:101A1000A501652F742F992D2BED3FE049E450E48B
:101A20000E94FD5387FD0EC0A501652F742F882DE0
:101A3000992D2BED3FE049EC50E40E944351B62E26
:101A4000A72E4C01A501652F7A2D882D992D2BED00
:101A50003FE049E450EC0E942152181674F0A501B1
:101A6000652F7A2D882D992D2BED3FE049EC50E420
:101A70000E944451B62EA72E4C01F601E757FF4FA6
:101A800060817181161617060CF04FC0882777FD0C
:101A90008095982F0E94C3529B01AC01D5016B2FFA
:101AA0007A2D882D992D0E9428529B01AC01F801B6
:101AB0006E2D7F2D8F2F902F0E9444517B01182F68
:101AC000092F98017F2D832F922F2BED3FE049ECBA
:101AD00050E40E94FD53181674F498016E2D7F2D6A
:101AE000832F922F2BED3FE049EC50E40E944351AD
:101AF0007B01182F092F98016E2D7F2D832F902F9A
:101B000020E030E0A9010E94215287FF0EC0980119
:101B10006E2D7F2D832F902F2BED3FE049EC50E46D
:101B20000E9444517B01182F092FF601E956FF4FFF
:101B300098018E2D9F2DA32FB02F80839183A28398
:101B4000B3836E2D7F2D832F902F2BED3FE049E443
:101B500050E40E94FD53181674F498016E2D7F2DE9
:101B6000832F902F2BED3FE049EC50E40E9443512E
:101B70007B01182F092FF601EE5AFF4F98018E2D89
:101B80009F2DA32FB02F80839183A283B383B601AF
:101B90006A5A7F4FC1010E94B733CC5BDF4F0FB64B
:101BA000F894DEBF0FBECDBFCF91DF911F910F9193
:101BB000FF90EF90DF90CF90BF90AF909F908F906D
:101BC0007F906F905F904F903F902F9008956F920D
:101BD0007F928F929F92AF92BF92CF92DF92EF92BD
:101BE000FF920F931F93DF93CF93CDB7DEB7299763
:101BF0000FB6F894DEBF0FBECDBF6C018C01085745
:101C00001F4FD8018C9190E00E944111F801808112
:101C100090E00E94023CCE0102960E9424168A8126
:101C20009B8182709170F1E082309F0709F0FCC1C6
:101C3000B6016A5E7F4F46E0A42EB12CAC0EBD1EED
:101C4000C6014096A60195018E010C5F1F4F7E01D3
:101C50000894E11CF11C0E94B43E009709F0E4C115
:101C60000E9443463FE8E32EF12CEC0CFD1CD7010B
:101C70002D913D914D915C911397621B730B840BD9
:101C8000950BF601E557FF4F208131814281538149
:101C9000621773078407950708F4B1C0C6014C9614
:101CA000B5010E94DB1E8C01009771F086E591E181
:101CB0006AE872E00E946B4D86E591E1B8014AE066
:101CC00050E00E94C34EB0C10E944346F7016083BA
:101CD000718382839383F601EA57FF4F80818601E7
:101CE0000A5B1F4FD6015C966D917C915D9724E451
:101CF000A22EB12CAC0CBD1C5E96ED90FC905F97B3
:101D000098E4692E712C6C0C7D1C90968D909C90A3
:101D10009197882309F467C0F601E556FF4F80814B
:101D20009181681B790B882777FD8095982FFCE0BF
:101D3000660F771F881F991FFA95D1F7F601E356B2
:101D4000FF4F20813181442737FD4095542F0E9459
:101D50003F55309521953F4FF80131832083F6019F
:101D6000E156FF4F80819181E81AF90AB70188276F
:101D700077FD8095982FECE0660F771F881F991FDD
:101D8000EA95D1F7F601EF55FF4F208131814427C5
:101D900037FD4095542F0E943F55D50111963C9335
:101DA0002E93F601ED55FF4F80819181881A990A93
:101DB000B401882777FD8095982F5CE0660F771F28
:101DC000881F991F5A95D1F7F601EB55FF4F2081D7
:101DD0003181442737FD4095542F0E943F55F30130
:101DE000318320830CC0709561957F4FD8016D932E
:101DF0007C93F501F182E082D3018D929C92F601F1
:101E000060817181828193810E94C352D601929632
:101E10006D937D938D939C93959714966D917D9181
:101E20008D919C9117970E94C352F60166A377A3E8
:101E300080A791A760857185828593850E94C35292
:101E4000D6019A966D937D938D939C939D971C9646
:101E50006D917D918D919C911F970E94C352F601C7
:101E600066A777A780AB91AB86010E5D1F4FC801B7
:101E70000E946D32B6016E5C7F4FC8010E94B6327F
:101E8000F601E957FF4F8081D60156962D913C917E
:101E90005797882309F4ABC0B901882777FD80954F
:101EA000982F37FD19C04CE0660F771F881F991FC8
:101EB0004A95D1F7F601E658FF4F2081318144273A
:101EC00037FD4095542F0E943F55309521953F4F47
:101ED000F60137AF26AF19C020E030EF4FEF5FEFCC
:101EE0000E94CB54F601E858FF4F208131814427EE
:101EF00037FD4095542F0E943F55309521953F4F17
:101F0000D601DF963C932E93DE97F601208D318D1E
:101F10008601005C1F4FB901882777FD8095982FB7
:101F200037FD16C03CE0660F771F881F991F3A9552
:101F3000D1F7E258FF4F20813181442737FD40958A
:101F4000542F0E943F55D80111963C932E9314C0F4
:101F500020E030EF4FEF5FEF0E94CB54F601E458E2
:101F6000FF4F20813181442737FD4095542F0E9437
:101F70003F55F80131832083D6015A962D913C912B
:101F80005B9786010E5B1F4FB901882777FD80950F
:101F9000982F37FD16C02CE0660F771F881F991FFA
:101FA0002A95D1F7F601EE57FF4F20813181442762
:101FB00037FD4095542F0E943F55F801318320830F
:101FC0002EC020E030EF4FEF5FEF0E94CB54F601C0
:101FD000E058FF4F20813181442737FD4095542F31
:101FE0000E943F55D80111963C932E9318C030950E
:101FF00021953F4FF60137AF26AFE05CFF4FD6018A
:1020000058968D919C91599791838083F601EE5B50
:10201000FF4F5A968D919C915B9791838083C60167
:102020000E94C60B81E001C080E029960FB6F894AB
:10203000DEBF0FBECDBFCF91DF911F910F91FF90FB
:10204000EF90DF90CF90BF90AF909F908F907F9058
:102050006F9008950F931F93CF93DF93EB011B8233
:102060001A82198A188A8EE69EE062E070E00E9469
:10207000FE428C3FC9F48EE69EE063E070E00E9471
:10208000FE42853189F48E01C2E0D0E08EE69EE00A
:10209000BE010E94FE42F80181938F012196C23257
:1020A000D105A1F781E001C080E0DF91CF911F91C0
:1020B0000F9108950F931F93DF93CF930F92CDB796
:1020C000DEB76983CE0101966AEB72E00E94563A50
:1020D0008823F1F1009181081091820888EE95E043
:1020E000B8010E94302F86E591E161E771E00E941E
:1020F000154D86E591E1B8014AE050E00E94B94EE5
:1021000086E591E16BE30E946E4D86E591E16BE619
:1021100071E00E94154D60918108709182088827B6
:1021200077FD8095982F0E94C35220E030E04FE762
:1021300053E40E942852AB01BC0186E591E122E004
:1021400030E00E94944F86E591E16BE30E94C44D1C
:102150000F90CF91DF911F910F910895CF93DF934F
:102160008091580890915908826090935908809303
:102170005808C8EED5E0CE010E941F2FCE0160E0C6
:1021800070E00E94302FDF91CF910895EF92FF927F
:102190000F93DF93CF93CDB7DEB727970FB6F894A1
:1021A000DEBF0FBECDBF81309105A1F47E01089442
:1021B000E11CF11CC7016FEB72E00E94095088EE30
:1021C00095E0B7014CE250E020E000E00E94F22EE2
:1021D000C70104C0009721F488EE95E00E94974F54
:1021E00027960FB6F894DEBF0FBECDBFCF91DF911B
:1021F0000F91FF90EF90089581E090E00E94C6104B
:10220000089580E090E00E94C6100895DF93CF9378
:102210000F92CDB7DEB7E0910D07F0910E07958DC7
:10222000992321F0882369F082E009C096819923DF
:1022300009F1882331F084858823C9F481E08983FA
:1022400001C01982A281B3810190F081E02D8C91AF
:10225000618941E09E012F5F3F4F0E943D2E882300
:1022600049F0E0910D07F0910E078981848720E005
:1022700030E002C02FEF3FEFC9010F90CF91DF9107
:1022800008959C018230910508F043C080930F07A8
:10229000909310074AE250E0249FC001259F900DC3
:1022A000349F900D11248B509A4F90930807809380
:1022B0000707C901880F991F820F931F880F991F65
:1022C000880F991F875B994F90930A07809309079E
:1022D00047E250E0249FC001259F900D349F900D50
:1022E00011248F59994F90930C0780930B074CE260
:1022F00050E0249FC001259F900D349F900D112424
:102300008155994F90930E0780930D0720E030E0A0
:1023100002C02FEF3FEFC9010895CF93DF93E09103
:102320000707F091080785E7808389E181838AE1C7
:1023300082838CE083838AE6848383E285838BE1D6
:1023400086838CE187838FE1828780E2838782E7BF
:10235000848784E7858783E486878BE3878781E4A6
:10236000808B88E3818B89E3828B8AE3838B8BE686
:10237000858B8CE6868B87E3878B8FE6808F86E064
:10238000818F84E2828F8DE6838F8EE6848F80E753
:10239000858F89E480A781E081A785E2868F86E228
:1023A000878F87E280A388E281A389E282A38AE201
:1023B00083A384E384A383E685A384E686A387E6D8
:1023C00087A380910F0790911007009721F081302B
:1023D000910569F406C0A0910907B0910A0788E643
:1023E00005C0A0910907B0910A0789E68C93609116
:1023F000090770910A0780E094E0DB0112969C9334
:102400008E93119786E713968C93139784E591E04A
:1024100015969C938E93149787EF9DEF17969C9338
:102420008E93169780E091E019969C938E9318975F
:1024300086E696E21B969C938E931A97C0910B07A3
:10244000D0910C0783E890E0A0E0B0E08883998306
:10245000AA83BB8380E098E0A0E0B0E08C839D83FA
:10246000AE83BF83188681E089871A8688E18B87CF
:1024700082E390E09D878C8785E08E8780E090E006
:10248000A0E2B1E48F87988BA98BBA8B80E090E0B3
:10249000A2EDB2E48B8B9C8BAD8BBE8B89E29CE56D
:1024A000AFE0BEE38F8B988FA98FBA8F2AE939E905
:1024B00049E95EE32B8F3C8F4D8F5E8F23E333E33F
:1024C00043E75FE32F8F38A349A35AA38BA39CA3B1
:1024D000ADA3BEA3A0910D07B0910E071196FC937A
:1024E000EE9313967C936E9312979B96DC93CE9308
:1024F0009A97DF91CF9108952F923F924F925F92DA
:102500006F927F928F929F92AF92BF92CF92DF9203
:10251000EF92FF920F931F93DF93CF93CDB7DEB768
:102520002B970FB6F894DEBF0FBECDBF7C0100978E
:1025300009F4DBC0FC0180819181A281B381009705
:10254000A105B10589F484819581A681B7810097A1
:10255000A105B10549F480859185A285B3850097D1
:10256000A105B10509F4C4C0E0910D07F0910E0773
:102570000280F381E02D00913305109134058081B4
:1025800063E043E03E010894611C711C93010E94CA
:10259000892D882309F4A9C099808A80FB81FF8353
:1025A000D701AD90BD90CD90DC90139714962D90EF
:1025B0003D904D905C90179718968D919D910D9040
:1025C000BC91A02D88879987AA87BB87E0910D07CA
:1025D000F0910E070280F381E02D009133051091F8
:1025E0003405808166E046E093010E94892D8823AE
:1025F00009F47BC0C601B501660F771F881F991FBC
:10260000292D30E014E0359527951A95E1F7285FDC
:102610003F4F2F703070205C3F4F442737FD40956F
:10262000542F0E943F55998180E0EA80FF24E82AD8
:10263000F92AE20EF31EC201B101660F771F881F4F
:10264000991F282D30E0A4E035952795AA95E1F74C
:10265000285F3F4F2F703070205C3F4F442737FD7D
:102660004095542F0E943F559B8180E00C8110E0E3
:10267000082B192B020F131F688579858A859B8586
:10268000660F771F881F991FBF812B2F30E0E4E072
:1026900035952795EA95E1F7285F3F4F2F70307009
:1026A000205C3F4F442737FD4095542F0E943F55F3
:1026B0007D8160E08E8190E0862B972B820F931FA7
:1026C000F982EA821B830C839D838E83E0910D0740
:1026D000F0910E070280F381E02D808166E046E0F4
:1026E00093010E943D2E882319F42FEF3FEF02C083
:1026F00020E030E0C9012B960FB6F894DEBF0FBE84
:10270000CDBFCF91DF911F910F91FF90EF90DF90A0
:10271000CF90BF90AF909F908F907F906F905F9081
:102720004F903F902F9008950F931F93DF93CF9377
:102730000F92CDB7DEB7E0910D07F0910E078681BD
:10274000882309F400C11982A281B3810190F0812C
:10275000E02D8C91618941E08E010F5F1F4F980140
:102760000E943D2E882309F4EEC0E0910D07F09100
:102770000E07A281B3810190F081E02D8C916581DB
:1027800041E098010E943D2E882309F4DCC0E091CD
:102790000D07F0910E07A281B3810190F081E02D29
:1027A0008C91648141E098010E943D2E882309F4B8
:1027B000CAC0E0910D07F0910E07858D882309F4BA
:1027C0005CC08CE08983A281B3810190F081E02D0F
:1027D0008C91648141E098010E943D2E882309F488
:1027E000B2C062E370E080E090E00E94774680EC47
:1027F0008983E0910D07F0910E07868180FF02C06A
:1028000080EE8983A281B3810190F081E02D8C91CB
:10281000648141E09E012F5F3F4F0E943D2E88233F
:1028200009F491C0E0910D07F0910E07848588238B
:1028300019F082E0898301C01982A281B3810190DD
:10284000F081E02D8C91618941E08E010F5F1F4F77
:1028500098010E943D2E882309F475C01982E091E9
:102860000D07F0910E07A281B3810190F081E02D58
:102870008C91658141E098015FC084E08983A281E9
:10288000B3810190F081E02D8C91648141E0980149
:102890000E943D2E882309F456C0E0910D07F09167
:1028A0000E078585882319F4868180FD02C080E4A7
:1028B00001C080E68983A281B3810190F081E02D7F
:1028C0008C91648141E09E012F5F3F4F0E943D2E1D
:1028D0008823C9F162E370E080E090E00E947746CF
:1028E000E0910D07F0910E078485882319F081E0AF
:1028F000898301C01982A281B3810190F081E02D0A
:102900008C91618941E09E012F5F3F4F0E943D2ED7
:102910008823C9F0A0910D07B0910E0712968D91F2
:102920009C911397ED91FC9111979D01255F3F4F6D
:10293000DC018C91658141E00E943D2E882319F0D5
:1029400020E030E002C02FEF3FEFC9010F90CF91A0
:10295000DF911F910F910895DF93CF930F92CDB721
:10296000DEB7E0910D07F0910E072681222309F4CE
:1029700047C021E0843F920799F021E0853F92070C
:1029800020F48A3F9105E1F509C023E0883E9207D3
:1029900049F027E0803D920799F506C0198206C0EC
:1029A00088E003C080E101C088E18983248130E0B0
:1029B000898190E043E0959587954A95E1F728173E
:1029C0003907D9F0A281B3810190F081E02D8C917B
:1029D000668141E09E012F5F3F4F0E943D2E88237C
:1029E00079F0E0910D07F0910E07898190E023E0E6
:1029F000959587952A95E1F7848320E030E002C021
:102A00002FEF3FEFC9010F90CF91DF910895DF9332
:102A1000CF930F92CDB7DEB7E0910D07F0910E077F
:102A200096819923F1F1843061F0853018F4823079
:102A3000C1F505C0883039F0803199F506C019829A
:102A400006C088E003C080E101C088E18983258158
:102A500030E0898190E063E0959587956A95E1F78C
:102A600028173907D9F0A281B3810190F081E02DB8
:102A70008C91678141E09E012F5F3F4F0E943D2E68
:102A8000882379F0E0910D07F0910E07898190E09D
:102A900053E0959587955A95E1F7858320E030E0DE
:102AA00002C02FEF3FEFC9010F90CF91DF91089542
:102AB000DF93CF930F92CDB7DEB7E0910D07F09182
:102AC0000E0726812223B9F18C3B910510F081E09D
:102AD00015C08236910510F082E010C08A3291054F
:102AE00010F083E00BC08431910510F084E006C043
:102AF0008A30910510F085E001C086E089839781D6
:102B000089819817A9F0A281B3810190F081E02D0D
:102B10008C91628141E09E012F5F3F4F0E943D2ECC
:102B2000882349F0E0910D07F0910E078981878392
:102B300020E030E002C02FEF3FEFC9010F90CF91AE
:102B4000DF910895DF93CF930F92CDB7DEB7BC012D
:102B5000009781F1E0910D07F0910E078185928534
:102B60008617970738F16536710520F50E94F654EF
:102B700061506983A281B3810190F081E02D8C9135
:102B800064A141E09E012F5F3F4F0E943D2E8823AC
:102B900089F0E0910D07F0910E07698170E06F5F99
:102BA0007F4F818592850E94F65472A361A320E035
:102BB00030E002C02FEF3FEFC9010F90CF91DF91BE
:102BC0000895EF92FF920F931F93CF93DF93E091BD
:102BD0000D07F0910E07958D992349F5968199235C
:102BE00049F1182F1E7F0385812F89238387811741
:102BF00019F0CFEFDFEF02C0C0E0D0E0112319F4ED
:102C00008785882331F081E00E9406111123A1F00D
:102C100004C080E00E9406110FC00E949413009728
:102C200059F0E0910D07F0910E07038703C0C0E053
:102C3000D0E002C0CFEFDFEFCE01DF91CF911F9147
:102C40000F91FF90EF900895EF92FF920F931F93D3
:102C5000DF93CF930F920F92CDB7DEB77C01E09157
:102C60000D07F0910E0786818823F9F0A281B381C8
:102C70000190F081E02D00913305109134058C9185
:102C8000628942E09E012F5F3F4F0E94892D882379
:102C900061F0398120E08A8190E0822B932BF7014B
:102CA0009183808320E030E002C02FEF3FEFC90125
:102CB0000F900F90CF91DF911F910F91FF90EF90A8
:102CC00008956F927F928F929F92AF92BF92CF9210
:102CD000DF92EF92FF920F931F93DF93CF930F92A8
:102CE0000F92CDB7DEB75C013B014A01E0910D07C1
:102CF000F0910E07858D882309F46DC086818823A5
:102D000009F46CC0A281B3810190F081E02D0091A3
:102D10003305109134058C91648542E06E0108946E
:102D2000C11CD11C96010E94892D882309F459C029
:102D3000998180E0EA80FF24E82AF92AEA14FB045A
:102D400028F4F40110822CEF3FEF53C0E0910D07FF
:102D5000F0910E07A281B38111968D919C911297EB
:102D6000969587958E159F05B8F40190F081E02D1A
:102D700000913305109134058C91638941E09601EF
:102D80000E94892D882381F1898184FF05C00E94DA
:102D900094132AEF3FEF2DC0E0910D07F0910E073D
:102DA000A281B3810190F081E02D00913305109153
:102DB00034058C9165854A2D93010E94892D8823C5
:102DC000B1F0C701B5010E94F6546150F40160836F
:102DD00020E030E00EC02FEF3FEF0BC02EEF3FEFB3
:102DE00008C02DEF3FEF05C02BEF3FEF02C029EFEA
:102DF0003FEFC9010F900F90CF91DF911F910F917D
:102E0000FF90EF90DF90CF90BF90AF909F908F900A
:102E10007F906F900895DF92EF92FF920F931F9330
:102E2000DF93CF930F92CDB7DEB7D82EE0910D0789
:102E3000F0910E0785858D1509F48DC0A281B381AF
:102E40000190F081E02D00913305109134057E0151
:102E50000894E11CF11CDD2079F18C91648141E042
:102E600097010E94892D882309F478C089818F7D7C
:102E70008983E0910D07F0910E07A281B381019043
:102E8000F081E02D8C91648141E097010E943D2EFC
:102E9000882309F463C063E070E080E090E00E9462
:102EA000774682E08983E0910D07F0910E07838DCC
:102EB0008823B9F182E832C08C91648141E09701A6
:102EC0000E94892D882309F449C0E0910D07F091F3
:102ED0000E079681898190FF02C0806201C08F7DBC
:102EE0008983A281B3810190F081E02D8C9164816E
:102EF00041E09E012F5F3F4F0E943D2E882371F1DC
:102F000063E070E080E090E00E947746E0910D077A
:102F1000F0910E07838D882319F080E8898301C022
:102F20001982848D882319F0898180638983A28125
:102F3000B3810190F081E02D8C91678941E09E0181
:102F40002F5F3F4F0E943D2E882341F0E0910D07F7
:102F5000F0910E07D58620E030E002C02FEF3FEF62
:102F6000C9010F90CF91DF911F910F91FF90EF90CA
:102F7000DF9008951F93DF93CF930F92CDB7DEB705
:102F8000182FE0910D07F0910E07848D811731F114
:102F9000112319F080E3898301C019828585882374
:102FA00019F0898182608983838D882319F0898152
:102FB00080688983A281B3810190F081E02D8C919A
:102FC000678941E09E012F5F3F4F0E943D2E88237D
:102FD00041F0E0910D07F0910E07148F20E030E0F2
:102FE00002C02FEF3FEFC9010F90CF91DF911F91EA
:102FF0000895DF92EF92FF920F931F93DF93CF9389
:103000000F920F92CDB7DEB7D82EE82EFF24C7015E
:1030100080779070009711F081E005C0DD2011F0FD
:10302000198202C080E48983E0910D07F0910E07B8
:10303000A281B3810190F081E02D8C91658941E0FE
:103040009E012F5F3F4F0E943D2EE0910D07F091B2
:103050000E07882351F189818F7B80871982E6FCD6
:1030600002C084E08983E5FC03C089818260898392
:10307000E4FC03C0898181608983E3FC03C089810A
:1030800088638983A281B3810190F081E02D8C91C6
:10309000668941E09E012F5F3F4F0E943D2E8823AD
:1030A00031F4E0910D07F0910E07168267C0DD2024
:1030B00031F08D2D883019F080E00E94BA17E09130
:1030C0000D07F0910E07A281B3810190F081E02DF0
:1030D00000913305109134058C91648141E09E018B
:1030E0002E5F3F4F0E94892D882309F447C08A81B3
:1030F000E0FE04C091E09983806202C019828F7D56
:103100008A83E0910D07F0910E07958D8A819923AE
:1031100011F0806801C08F778A83A281B38101900A
:10312000F081E02D8C9166A141E09E012F5F3F4F21
:103130000E943D2E882311F1E0910D07F0910E07BA
:10314000A281B3810190F081E02D8C91648141E0F6
:103150009E012E5F3F4F0E943D2E882379F0E09123
:103160000D07F0910E07D682178662E370E080E0CB
:1031700090E00E94774620E030E002C02FEF3FEF62
:10318000C9010F900F90CF91DF911F910F91FF9088
:10319000EF90DF9008951F93DF93CF930F920F92DC
:1031A000CDB7DEB7182F893208F068C0882301F543
:1031B00080E00E94BA17198287E08A83E0910D07A8
:1031C000F0910E07A281B3810190F081E02D8C91E6
:1031D000658942E09E012F5F3F4F0E943D2E88236C
:1031E00009F44CC0E0910D07F0910E07178643C01B
:1031F00081E00E94BA1780E28983113011F41A82AB
:1032000004C0163028F481E08A8385E090E00BC08A
:10321000153128F482E08A838AE090E004C083E0DC
:103220008A8384E190E00E9458158A818295880FF4
:10323000880F807C87608A83E0910D07F0910E07EC
:10324000A281B3810190F081E02D8C91658942E0EB
:103250009E012F5F3F4F0E943D2E882379F0E09121
:103260000D07F0910E0788E08683108681E087873E
:1032700080E00E94E11520E030E002C02FEF3FEF38
:10328000C9010F900F90CF91DF911F9108950F9377
:103290001F93DF93CF930F92CDB7DEB78C01E091F0
:1032A0000D07F0910E078681882309F45DC0858D96
:1032B000882309F059C08785882361F0C8010197E8
:1032C0008832910520F4802F0E94CB184AC080E0FC
:1032D0000E94CB180430110540F0B80183E0093E8C
:1032E000180728F068EE73E002C064E070E008EEB2
:1032F00013E0C8010E94F65461506983E0910D0704
:10330000F0910E07A281B3810190F081E02D8C91A4
:10331000618141E09E012F5F3F4F0E943D2E882337
:1033200019F1E0910D07F0910E07698170E06F5F70
:103330007F4FC8010E940A557287618781A192A1BF
:103340008536910510F084E690E00E94A215E09188
:103350000D07F0910E0781859285969587950E94BD
:10336000581520E030E002C02FEF3FEFC9010F9069
:10337000CF91DF911F910F910895EF92FF920F93DC
:103380001F93DF93CF93CDB7DEB72B970FB6F8948B
:10339000DEBF0FBECDBF80E88D83E0910D07F091B9
:1033A0000E07A281B3810190F081E02D65E0E62E49
:1033B000F12CEC0EFD1E8C91658941E097010E9475
:1033C0003D2E882309F4B3C264E670E080E090E00B
:1033D0000E9477461D82E0910D07F0910E07A281B1
:1033E000B3810190F081E02D8C91658941E09701D6
:1033F0000E943D2E882309F491C2E0910D07F091BF
:103400000E07A281B3810190F081E02D0091330578
:10341000109134058C91618D46E097010E94892DB1
:10342000882309F47EC26A8570E061707070660F4F
:10343000771F660F771F888590E081709070880FE6
:10344000991F062F082B8E818170082BD9F001302F
:1034500031F4E0910D07F0910E07068749C0023064
:1034600009F441C086E591E165EC72E00E946B4D84
:1034700086E591E1602F4AE050E00E94664E2CEF15
:103480003FEF57C2E0910D07F0910E07A281B38183
:103490000190F081E02D00913305109134058C915D
:1034A000638141E097010E94892D882309F43CC281
:1034B0008D818F7049F486E591E168EE72E00E949B
:1034C000B14D2AEF3FEF35C2843069F486E591E1D2
:1034D00063E373E00E94B14DE0910D07F0910E0798
:1034E00081E0868705C0E0910D07F0910E071686F2
:1034F000E0910D07F0910E072FEF2683248325839B
:1035000027838FEF9FEF928781872387258792A359
:1035100081A381E08087838F148E108A178671962D
:103520008AE011928A95E9F7E0910D07F0910E0774
:10353000158E168E10A2178E80ED97E00E94AC14A7
:10354000009709F0F4C182E00E940715009709F086
:10355000EEC18AE290E00E945815009709F0E7C199
:1035600082E390E00E944719009709F0E0C180E0F3
:103570000E94E115009709F0DAC186E591E160E566
:1035800073E00E94B14D81E00E940B179CE07E0128
:103590000894E11CF11C0091330510913405892F2A
:1035A00060E041E097019B870E94892D9B858823DD
:1035B00019F08981883421F09F5F903161F7C7C18C
:1035C000E0910D07F0910E0793A31982892F6AE00D
:1035D00041E097010E943D2E882309F460C161E01B
:1035E00070E080E090E00E9477468FE08983E09170
:1035F0000D07F0910E0783A16AE041E097010E9458
:103600003D2E882309F44EC161E070E080E090E037
:103610000E947746E0910D07F0910E070091330567
:103620001091340583A160E143E097010E94892D48
:10363000882309F43AC1E0910D07F0910E078981C2
:1036400090E080589F4F95A384A38A8190E0805892
:103650009F4F97A386A38B8190E080589F4F91A79F
:1036600080A786E591E163E673E00E946B4DE091EF
:103670000D07F0910E0764A175A186E591E14AE07E
:1036800050E00E94B94E86E591E162E773E00E9446
:103690006B4DE0910D07F0910E0766A177A186E5CD
:1036A00091E14AE050E00E94B94E86E591E162E77F
:1036B00073E00E946B4DE0910D07F0910E0760A53D
:1036C00071A586E591E14AE050E00E94B94E86E599
:1036D00091E10E94764D1982E0910D07F0910E075D
:1036E00083A16AE041E097010E943D2E882309F4FE
:1036F000DFC061E070E080E090E00E94774680E00B
:103700000E940B1780E48983E0910D07F0910E076A
:10371000A281B3810190F081E02D8C91628D41E016
:1037200097010E943D2E882309F4C5C0E0910D0742
:10373000F0910E0783A180688983A281B3810190F3
:10374000F081E02D8C91668D41E097010E943D2E25
:10375000882309F4B3C082E08983E0910D07F091DA
:103760000E07A281B3810190F081E02D8C91678DCD
:1037700041E097010E943D2E882309F4A2C088E809
:103780008983E0910D07F0910E07A281B38101902A
:10379000F081E02D8C9160A141E097010E943D2EC7
:1037A000882309F491C0E0910D07F0910E0783A1E1
:1037B0008983A281B3810190F081E02D8C9161A178
:1037C00041E08E010F5F1F4F98010E943D2E88231C
:1037D00009F47DC08AE08983E0910D07F0910E071E
:1037E000A281B3810190F081E02D8C9162A141E032
:1037F00098010E943D2E882309F46CC081E88983DA
:10380000E0910D07F0910E07A281B3810190F08144
:10381000E02D8C9163A141E098010E943D2E882308
:1038200009F45BC081E08983E0910D07F0910E07F8
:10383000A281B3810190F081E02D8C9166A141E0DD
:1038400098010E943D2E882309F44AC083E08983B1
:10385000E0910D07F0910E07A281B3810190F081F4
:10386000E02D8C9167A141E098010E943D2E8823B4
:10387000D1F180E88983E0910D07F0910E07A281D4
:10388000B3810190F081E02D8C9161A541E0980118
:103890000E943D2E8823B1F501EF1FEF26C00EEFE9
:1038A0001FEF23C00DEF1FEF20C00CEF1FEF1DC057
:1038B0000BEF1FEF1AC00AEF1FEF17C009EF1FEF42
:1038C00014C008EF1FEF11C007EF1FEF0EC006EF87
:1038D0001FEF0BC005EF1FEF08C004EF1FEF05C07F
:1038E00003EF1FEF02C002EF1FEF86E591E164E7EF
:1038F00073E00E946B4D86E591E1B8014AE050E02B
:103900000E94C34E8AE090E00E94A215009779F4CD
:1039100080E00E94F91720E030E00BC02EEF3FEF6F
:1039200008C02DEF3FEF05C02BEF3FEF02C02FEF98
:103930003FEFC9012B960FB6F894DEBF0FBECDBF87
:10394000CF91DF911F910F91FF90EF90089586E541
:1039500091E16BE873E00E94B14D0FEF1FEFC5CF0F
:10396000EF92FF920F931F93DF93CF930F920F92DB
:10397000CDB7DEB77B018A0141155105B1F1E09168
:103980000D07F0910E072681222391F199838A83F6
:10399000A281B3819B01280F311D18968D919C91B6
:1039A00019978217930738F10190F081E02D8C91DF
:1039B000638D42E09E012F5F3F4F0E943D2E882382
:1039C000E9F0E0910D07F0910E07A281B38101901B
:1039D000F081E02D8C91608D4E2D98010E943D2E3E
:1039E000882379F42BEF3FEF0EC02FEF3FEF0BC092
:1039F0002EEF3FEF08C02DEF3FEF05C02CEF3FEF5C
:103A000002C020E030E0C9010F900F90CF91DF910C
:103A10001F910F91FF90EF900895CF92DF92EF9258
:103A2000FF920F931F93DF93CF930F920F92CDB717
:103A3000DEB76B017A0141155105B9F1E0910D072F
:103A4000F0910E072681222381F199838A83A28136
:103A5000B3819B01280F311D18968D919C91199768
:103A60008217930710F10190F081E02D8C91638D06
:103A700042E09E012F5F3F4F0E943D2E8823A9F018
:103A8000E0910D07F0910E07A281B3810190F081C2
:103A9000E02D00913305109134058C91608D4C2DF3
:103AA00097010E94892D882319F42FEF3FEF02C060
:103AB00020E030E0C9010F900F90CF91DF911F916E
:103AC0000F91FF90EF90DF90CF9008952F923F924B
:103AD0004F925F926F927F928F929F92AF92BF921E
:103AE000CF92DF92EF92FF920F931F93DF93CF93CA
:103AF000CDB7DEB766970FB6F894DEBF0FBECDBF69
:103B00001C012B014D8B5E8B3C8B2B8BE0910D07A9
:103B1000F0910E07868D882309F0C9C061157105E3
:103B200009F4C8C080E190E00E945E555C0100E0AD
:103B300010E08FC07101E01AF10A81E1E816F1048A
:103B400018F0E0E1EE2EF12CF201E00FF11F65011B
:103B50003501C7018A0D9B1DD50103C024912D930A
:103B60003196A817B907D1F7C801B701A5010E947E
:103B7000B01C4C01009781F086E591E16EE973E09D
:103B80000E946B4D86E591E1B4014AE050E00E944D
:103B9000C34E2DEF3FEF96C0C801B701AE014D5F98
:103BA0005F4F0E940D1D009709F087C0C501BE013F
:103BB0006D5F7F4FA7010E948D57009709F447C0A2
:103BC00086E591E166EB73E00E946B4D86E591E13D
:103BD000B8014AE050E00E94474E8601065F1F4F41
:103BE000F30161913F0186E591E14AE050E00E94D6
:103BF0005E4E86E591E162E773E00E946B4D6016D0
:103C0000710671F786E591E10E94764D8E010D5F98
:103C10001F4F7DE0E72EF12CEC0EFD1EF8016191A7
:103C20008F0186E591E14AE050E00E945E4E86E514
:103C300091E162E773E00E946B4D0E151F0571F76D
:103C400086E591E10E94764D2BEF3FEF3BC00E0DD4
:103C50001F1D0215130508F46DCFFE89F9838D89A8
:103C60008A83E0910D07F0910E07A281B381019044
:103C7000F081E02D8C91658D42E09E012F5F3F4FDA
:103C80000E943D2E8823E1F0E0910D07F0910E0790
:103C900081E0868F8B899C8990A3878F86E591E14F
:103CA00064ED73E00E94B14D20E030E00BC02FEFD7
:103CB0003FEF08C02EEF3FEF05C02CEF3FEF02C0F3
:103CC0002AEF3FEFC90166960FB6F894DEBF0FBE2C
:103CD000CDBFCF91DF911F910F91FF90EF90DF90BB
:103CE000CF90BF90AF909F908F907F906F905F909C
:103CF0004F903F902F900895DF93CF930F92CDB7C1
:103D0000DEB7E0910D07F0910E07958D981709F435
:103D100048C0882359F1868D882309F445C080E086
:103D20000E94061180E00E940B17E0910D07F091B0
:103D30000E07878D90A10E9447191982E0910D0707
:103D4000F0910E070280F381E02D808163E241E073
:103D50009E012F5F3F4F0E943D2EE0910D07F09195
:103D60000E0781E0858F0E94061119C080E00E9435
:103D70000611E0910D07F0910E078385898302807B
:103D8000F381E02D808163E241E09E012F5F3F4F90
:103D90000E943D2EE0910D07F0910E07158E0E94B6
:103DA000941320E030E002C02FEF3FEFC9010F90E5
:103DB000CF91DF9108958F929F92AF92BF92CF9251
:103DC000DF92EF92FF920F931F93DF93CF93CDB7C4
:103DD000DEB729970FB6F894DEBF0FBECDBF7C01CA
:103DE0004B01E0910D07F0910E07868180FF88C09E
:103DF000A281B3810190F081E02D009133051091F3
:103E000034058C9160A548E09E012F5F3F4F0E94D2
:103E1000892D882309F477C0898180FF77C0888540
:103E200087FD77C086FD75C09B8180E06A8170E068
:103E3000682B792BF701718360839D8180E00C8171
:103E400010E0082B192B138302839F8180E0CE8022
:103E5000DD24C82AD92AD582C482A0900D07B0904B
:103E60000E07882777FD8095982FF50124A135A1AD
:103E7000442737FD4095542F0E94CB54672F782F4D
:103E8000892F992787FD9A95F70171836083B8017F
:103E9000882777FD8095982FF50126A137A1442723
:103EA00037FD4095542F0E94CB54672F782F892FD0
:103EB000992787FD9A95F70173836283B601882756
:103EC00077FD8095982FF50120A531A5442737FD72
:103ED0004095542F0E94CB54672F782F892F992714
:103EE00087FD9A95F7017583648381149104A1F08D
:103EF0000E944346F40160837183828393830CC0E4
:103F00002FEF3FEF0BC02CEF3FEF08C02BEF3FEF41
:103F100005C02AEF3FEF02C020E030E0C90129963A
:103F20000FB6F894DEBF0FBECDBFCF91DF911F91CA
:103F30000F91FF90EF90DF90CF90BF90AF909F9048
:103F40008F900895E091D411F091D51120E030E0E8
:103F500008C0808191810296280F391F0280F38169
:103F6000E02D3097B1F7C90108950F931F93DF93A8
:103F7000CF930F920F92CDB7DEB78091D21190916F
:103F8000D3118E010F5F1F4F009719F4065D114189
:103F900008C0081B190B1A8309830E94A21F080F6F
:103FA000191F1A83098389819A810F900F90CF91ED
:103FB000DF911F910F910895CF93DF9381E197E0F7
:103FC0000E94762F86E397E00E943C398EE297E0CC
:103FD0000E943C3910923E07CFE3D7E0CE010E9409
:103FE0001F2FCE0161E070E00E94302FDF91CF9152
:103FF0000895EF92FF920F93DF93CF93CDB7DEB783
:1040000027970FB6F894DEBF0FBECDBF8130910564
:1040100031F581E197E066E070E047E050E028E0AC
:1040200030E00E94512F8EE297E00E94043986E32F
:1040300097E00E9404397E010894E11CF11CC7013D
:1040400064EE73E00E9409508FE397E0B70140E10E
:1040500050E021E000E00E94F22EC70104C000976A
:1040600021F48FE397E00E94974F27960FB6F894BC
:10407000DEBF0FBECDBFCF91DF910F91FF90EF90CC
:1040800008958F929F92AF92BF92CF92DF92EF925C
:10409000FF920F931F93CF93DF939C01EB0185E079
:1040A0006C3D78072CF485E02D3D38070CF083C07B
:1040B00085E02C3D38072CF485E0CD3DD8070CF089
:1040C0007AC04CED55E0421B530B141615061CF03C
:1040D000A9014C5D55408CED95E08C1B9D0B18168D
:1040E00019061CF0CE018C5D9540481759070CF459
:1040F00064C06901CC1ADD0AB601882777FD809576
:10410000982F0E94C352B62EA72E982E892E01E01A
:1041100010E0A5019401652F742F832F922F20E0CA
:1041200030E0A9010E94FD53181614F000E010E0E1
:1041300081E0E82EF12CA5019401652F7A2D832FC3
:10414000982D20E030E0A9010E94215287FD02C095
:10415000EE24FF240E191F09D7FE04C0D094C19489
:10416000D108D39480914D0590914E058C159D05F5
:104170000CF46C010C9D90010D9D300D1C9D300DBB
:1041800011242C0F3D1F8FEF0F3F180741F4809132
:104190004F0590915005821793077CF40AC00130B7
:1041A000110559F48091510590915205281739074E
:1041B00024F49C0102C02CED35E0C901DF91CF91C0
:1041C0001F910F91FF90EF90DF90CF90BF90AF9035
:1041D0009F908F900895AF92BF92CF92DF92EF920F
:1041E000FF920F931F93DF93CF930F92CDB7DEB75C
:1041F0006983CE0101966DEE73E00E94563A8823E2
:1042000009F480C0809181089091820804E610E052
:10421000B8010E940A55882777FD8095982F0E9443
:10422000C35260933505709336058093370590939C
:1042300038058091830890918408B8010E940A553E
:10424000882777FD8095982F0E94C3526093390587
:1042500070933A0580933B0590933C0580918508C7
:1042600090918608B8010E940A55882777FD8095AD
:10427000982F0E94C35260933D0570933E05809332
:104280003F05909340058091870890918808B80178
:104290000E940A55882777FD8095982F0E94C35267
:1042A00060934105709342058093430590934405C4
:1042B0008091890890918A08B8010E940A55882740
:1042C00077FD8095982F0E94C352609345057093A7
:1042D0004605809347059093480580918B089091FF
:1042E0008C08B8010E940A55882777FD8095982F81
:1042F0000E94C3526093490570934A0580934B0511
:1043000090934C05CE01019664EF73E00E94563AFB
:10431000882309F47EC086E591E165ED71E00E9495
:10432000154D4091350550913605609137057091D6
:10433000380586E591E122E030E00E94944F86E561
:1043400091E16CEF73E00E946B4D40913905509103
:104350003A0560913B0570913C0586E591E122E0CC
:1043600030E00E94944F86E591E16CEF73E00E948B
:104370006B4D40913D0550913E0560913F05709118
:10438000400586E591E122E030E00E94944F86E509
:1043900091E16CEF73E00E946B4D409141055091AB
:1043A0004205609143057091440586E591E122E064
:1043B00030E00E94944F86E591E16CEF73E00E943B
:1043C0006B4D4091450550914605609147057091B0
:1043D000480586E591E122E030E00E94944F86E5B1
:1043E00091E16CEF73E00E946B4D40914905509153
:1043F0004A0560914B0570914C0586E591E122E0FC
:1044000030E00E94944F86E591E16EEF73E00E94E8
:10441000B14DCE01019660E074E00E94563A8823C7
:10442000D1F1409181085091820863E0483E5607DF
:1044300094F1209183083091840883E0283E380766
:1044400054F18091850890918608E3E0883E9E07AC
:1044500014F1F7E0413D5F07F4F467E0213D3607D2
:10446000D4F4E7E0813D9E07B4F4509322054093D5
:1044700021053093240520932305909326058093EE
:10448000250580918708909188088130910519F45D
:1044900081E080933E07CE01019663E074E00E94C4
:1044A000563A8823C9F080918108909182089C0136
:1044B000285E3340F3E0293E3F0770F490932205D5
:1044C0008093210580918308909184088130910523
:1044D00019F481E080933E07CE01019668E074E014
:1044E0000E94563A8823C9F08091810890918208F1
:1044F0009C01285E334043E0293E340770F49093DA
:10450000240580932305809183089091840881304D
:10451000910519F481E080933E07CE01019661E197
:1045200074E00E94563A8823C9F0809181089091E6
:1045300082089C01285E334063E0293E360770F410
:104540009093260580932505809183089091840897
:104550008130910519F481E080933E078E010F5F51
:104560001F4FC8016AE174E00E94563A882341F463
:10457000C8016FE174E00E94563A882309F4E6C04E
:10458000CE0101966AE174E00E94563A8823F1F068
:104590006091810870918208CB018C599F4F893CB2
:1045A0009105A0F4882777FD8095982F0E94C3522B
:1045B00020E030E048EC52E40E942852609320074B
:1045C000709321078093220790932307E0902007A0
:1045D000F09021070091220710912307C801B7012D
:1045E00020E030E0A9010E94FD5387FD07C0C8010B
:1045F000B70120E030E04AEF53E406C0C801B7013C
:1046000020E030E04AE753E40E94085420E030E81C
:104610004BEB54E40E9444510E9490527093220547
:1046200060932105709326056093250580912505EB
:104630009091260590932D0780932C07CE0101962B
:104640006FE174E00E94563A882309F47FC06091BC
:10465000810870918208CB018C599F4F893C91054C
:1046600008F074C0882777FD8095982F0E94C35268
:1046700020E030E048EC52E40E942852262F372FE9
:10468000482F592F2093240730932507409326075E
:104690005093270720E030E04AE753E40E94085493
:1046A0000E9490526B017C018B01609120077091F8
:1046B0002107809122079091230720E030E0A90193
:1046C0000E94FD5320912C0730912D0787FD1DC0BE
:1046D000C901805D9740D7FE04C0CC24DD24C01AF8
:1046E000D10A8C0D9D1D97FF02C080E090E0A801CB
:1046F000420F531F481B590B50932205409321052D
:10470000201B310B281B390B1DC088EE93E0821B48
:10471000930BD7FE04C0CC24DD24C01AD10A8C0D23
:104720009D1D97FF02C080E090E0A801420F531F3B
:10473000480F591F5093220540932105201B310B30
:10474000280F391F30932605209325058E010F5F12
:104750001F4FC80163E274E00E94563A882309F4AF
:1047600052C06091810870918208CB018C599F4F93
:10477000893C910508F09BC0882777FD8095982F8C
:104780000E94C35220E030E048EC52E40E942852DC
:10479000162FC72EE82E092F862F9C2DAE2DB02F59
:1047A0008093280790932907A0932A07B0932B079B
:1047B000612F7C2D8E2D902F20E030E0A9010E94EA
:1047C000FD5387FD09C0612F7C2D8E2D902F20E099
:1047D00030E04AEF53E408C0612F7C2D8E2D902FDE
:1047E00020E030E04AE753E40E94085420E030E83B
:1047F0004BEB54E40E9444510E9490527093240564
:104800006093230554C0C80168E274E00E94563AE0
:104810008823F1F060918108709182088FE397E01E
:104820000E94302F86E591E167EC71E00E94154D02
:10483000609181087091820886E591E14AE050E03C
:104840000E94B94E86E591E16BE30E94C44D2FC0F2
:10485000C8016DE274E00E94563A882329F081E194
:1048600097E00E94762F23C0C80163E374E00E94A2
:10487000563A882329F081E197E00E94503017C012
:10488000C80168E374E00E94563A882381F0809161
:104890002705882361F086E591E167EA71E00E94CF
:1048A0008B4D86E591E166E871E00E948B4D8EE2CA
:1048B00097E042E350E060E070E00E941439882302
:1048C00009F469C0009121051091220560911B0532
:1048D00070911C0506171707B9F420912305309134
:1048E000240580911F05909120052817390761F450
:1048F000209125053091260580911D0590911E057A
:104900002817390709F447C0C8010E944120909335
:104910001C0580931B05E0902305F0902405609111
:104920001F0570912005C7010E944120909320052A
:1049300080931F05C0902505D090260560911D0528
:1049400070911E05C6010E94412090931E05809320
:104950001D0580913E07882371F010931C0500937C
:104960001B05F0922005E0921F05D0921E05C09213
:104970001D0510923E0760911B0570911C0540912A
:104980001F055091200520911D0530911E0581E1E4
:1049900097E00E94363000D00F9280911D059091D3
:1049A0001E0520911B0530911C05820F931F62E0AC
:1049B00070E00E940A55882777FD8095982F24E69D
:1049C00030E040E050E0EDB7FEB72183328343830F
:1049D000548328EE33E040E050E0F0EDEF2EF7E0B6
:1049E000FF2E012D112DECE9AE2EEFEFBE2EEFEFD5
:1049F000CE2EEFEFDE2E0E94FA500E94C35260933B
:104A000020087093210880932208909323080F9028
:104A10000F900F900F9086E397E048EE53E060E030
:104A200070E00E941439882309F466C086E591E19C
:104A30006EE771E00E94154D60911B0570911C0599
:104A400086E591E14AE050E00E94B94E86E591E1A9
:104A50006CE20E946E4D60911F057091200586E505
:104A600091E14AE050E00E94B94E86E591E16CE2A6
:104A70000E946E4D60911D0570911E0586E591E1C5
:104A80004AE050E00E94B94E86E591E16BE30E9456
:104A9000C44D86E591E167E771E00E94154D609194
:104AA00021057091220586E591E14AE050E00E94DF
:104AB000B94E86E591E16CE20E946E4D609123054E
:104AC0007091240586E591E14AE050E00E94B94EDC
:104AD00086E591E16CE20E946E4D60912505709132
:104AE000260586E591E14AE050E00E94B94E86E550
:104AF00091E16BE30E94C44D0F90CF91DF911F9124
:104B00000F91FF90EF90DF90CF90BF90AF900895FE
:104B100081E090E00E94F91F089580E090E00E94FB
:104B2000F91F0895DF93CF9300D00F920F92CDB766
:104B3000DEB76D83CE0105966DE374E00E94563AB0
:104B4000882309F480C080915407882351F1109282
:104B5000540710925C0710925B0710925E07109248
:104B60005D0710925F071092600710926107109224
:104B70006207109264071092630781E090E09A83C5
:104B800089831C821B8280E594E0BE016F5F7F4FAA
:104B90000E94663A86E591E16FE672E00E948B4DD5
:104BA00052C081E08093540780917F0890918008E3
:104BB000009779F4609110087091110880911208A3
:104BC000909113080E949052709356076093550776
:104BD00008C0809181089091820890935607809335
:104BE00055078091550790915607909364078093DD
:104BF000630786E591E16AE572E00E94154D6091D8
:104C000063077091640786E591E14AE050E00E94F5
:104C1000B94E86E591E16BE30E94C44D86E591E1D2
:104C200064E572E00E94154D60916307709164071E
:104C300086E591E14AE050E00E94B94E86E591E1B7
:104C40006BE30E94C44DCE01059664E574E00E94BA
:104C5000563A882309F47AC0809165078823F1F0D9
:104C60001092650710926D0710926C0710927107F1
:104C70001092700781E090E09A8389831C821B82E6
:104C800085E694E0BE016F5F7F4F0E94663A86E53D
:104C900091E16BE372E00E948B4D58C081E08093FC
:104CA000650780917F08909180080097A9F4609132
:104CB000140870911508809116089091170820E04B
:104CC00030E048EC52E40E9408540E9490527093E5
:104CD00067076093660708C08091810890918208F9
:104CE00090936707809366078091660790916707A6
:104CF000909371078093700786E591E165E272E019
:104D00000E94154D609170077091710786E591E1E1
:104D10004AE050E00E94B94E86E591E16BE30E94C3
:104D2000C44D86E591E16FE172E00E94154D6091FE
:104D300070077091710786E591E14AE050E00E94AA
:104D4000B94E86E591E16BE30E94C44D8CE497E097
:104D500042E350E060E070E00E941439882309F4D7
:104D60000EC180916507882309F46AC06091140818
:104D700070911508809116089091170820E030E096
:104D800048EC52E40E9408540E9490529B01709398
:104D90006907609368078091700790917107821B83
:104DA000930B90936B0780936A074091280550916D
:104DB0002905849F9001859F300D949F300D11240B
:104DC00030936D0720936C07C9012333310514F02C
:104DD00082E390E02FEF8E3C920714F48EEC9FEF6D
:104DE00090936F0780936E0786E591E164E072E02F
:104DF0000E948B4D86E591E16DEF71E00E94154DAB
:104E000060916A0770916B0786E591E14AE050E096
:104E10000E94B94E86E591E16BE30E94C44D81E0AA
:104E200090E09A83898380916E0790916F079C83AD
:104E30008B8385E694E0BE016F5F7F4F0E94663AE8
:104E400080915407882309F49AC0609110087091EA
:104E5000110880911208909113080E9490529B01B2
:104E60007093580760935707809163079091640788
:104E7000281B390B30935A0720935907253B3105DE
:104E800034F02856314030935A07209359078091C7
:104E9000590790915A072FEF8D34920734F48859AF
:104EA0009E4F90935A0780935907609159077091CC
:104EB0005A079B01442737FD4095542F80915F0787
:104EC00090916007A0916107B0916207820F931FD4
:104ED000A41FB51F80935F0790936007A09361079D
:104EE000B0936207709561957F4F209128053091AE
:104EF0002905629FC001639F900D729F900D112440
:104F000090937307809372078333910514F082E3C3
:104F100090E02FEF8E3C920714F48EEC9FEF90936D
:104F200075078093740786E591E163EE71E00E9456
:104F30008B4D86E591E16DED71E00E94154D60911C
:104F4000590770915A0786E591E14AE050E00E94C6
:104F5000B94E86E591E16BE30E94C44D81E090E09B
:104F60009A83898380917407909175079C838B83C2
:104F700080E594E0BE016F5F7F4F0E94663A0F901C
:104F80000F900F900F900F90CF91DF9108958CE4C8
:104F900097E00E943C3986E591E162E872E00E9468
:104FA0008B4D08958CE497E00E9404390895EF92A8
:104FB000FF920F931F93CF93DF93EB017A018C0144
:104FC000DC01AD51B84F8C9187FF03C01982188264
:104FD00037C0C801880F991F800F911F880F991F34
:104FE000880F991F2C91332727FD3095280F391FE3
:104FF0004091760750E02417350714F52C9133279C
:1050000027FD3095280F391FF901EE0FFF1FE20F22
:10501000F31FE958F84F208126FF12C02C91332747
:1050200027FD3095280F391FF901EE0FFF1FE20F02
:10503000F31FE958F84F80818F7360E00E94A64803
:10504000F801ED51F84F80818F5F8083C801880F90
:10505000991F800F911F880F991F880F991F20811A
:10506000332727FD3095280F391F4091760750E0F0
:10507000241735070CF053C020812C300CF04FC0A2
:10508000488159812081332727FD3095280F391F0A
:10509000D901AA0FBB1FA20FB31FA958B84F119671
:1050A0002D913C911297420F531FD70111965C939B
:1050B0004E932081332727FD3095280F391FD901C2
:1050C000AA0FBB1FA20FB31FA958B84F2C9126FFE0
:1050D0002EC02081332727FD3095280F391FF90175
:1050E000EE0FFF1FE20FF31FE958F84F80818F7317
:1050F00061E00E94A6481BC080E49CE9F70191830F
:10510000808307C0888199810496D70111969C936A
:105110008E93F801ED51F84F8FEF808308C088819E
:1051200099810496BCE980349B0730F3EBCFDF9183
:10513000CF911F910F91FF90EF9008951F920F92C2
:105140000FB60F920BB60F9211242F933F934F93EC
:105150005F936F937F938F939F93AF93BF93EF93DF
:10516000FF9381E090E064E870E048E850E00E943E
:10517000D727FF91EF91BF91AF919F918F917F9131
:105180006F915F914F913F912F910F900BBE0F90B8
:105190000FBE0F901F9018951F920F920FB60F928F
:1051A0000BB60F9211242F933F934F935F936F93FE
:1051B0007F938F939F93AF93BF93EF93FF9382E07F
:1051C00090E064E970E048E950E00E94D727FF9141
:1051D000EF91BF91AF919F918F917F916F915F916F
:1051E0004F913F912F910F900BBE0F900FBE0F90DC
:1051F0001F9018951F920F920FB60F920BB60F9239
:1052000011242F933F934F935F936F937F938F93CB
:105210009F93AF93BF93EF93FF9380E090E064EA96
:1052200070E048EA50E00E94D727FF91EF91BF91CC
:10523000AF919F918F917F916F915F914F913F912E
:105240002F910F900BBE0F900FBE0F901F901895CF
:10525000FC0180917607843290F480838F5F809385
:105260007607808190E0FC01EE0FFF1FE80FF91F29
:10527000E958F84F88EB9BE09283818308958FEF84
:1052800080830895DF92EF92FF920F931F93CF9345
:10529000DF93EC01D62E8A0179018881843208F0EF
:1052A00083C0862F61E00E9482484881842F90E06D
:1052B000FC01EE0FFF1FE80FF91FE958F84F9D2D75
:1052C0009F738081807C892B808380E292E0801BA9
:1052D000910B24E030E0B9010E940A55698380E611
:1052E00099E08E199F09B9010E940A556A83842F9B
:1052F0006CE00E94EA5490E09C01220F331F280FBB
:10530000391F220F331F220F331F40E050E0BA0134
:10531000620F731FFB01EE0FFF1FE60FF71FE95827
:10532000F84F608166FD34C04F5F5F4F4C305105D0
:1053300071F743C01092800082E080938100109248
:10534000850010928400B19A80916F0082608093F2
:105350006F001EC08230910569F41092900082E0C7
:1053600080939100109295001092940088BB8093D6
:1053700071000EC0009761F41092A00082E080934B
:10538000A1001092A5001092A40089BB8093720026
:10539000888190E0FC01EE0FFF1FE80FF91FE9582C
:1053A000F84F8081806480838881DF91CF911F9145
:1053B0000F91FF90EF90DF9008958130910551F6A5
:1053C000B9CF40E252E020E639E00E944229089538
:1053D000FC01808190E0FC01EE0FFF1FE80FF91F38
:1053E000E958F84F80818F7B80830895FC012081EC
:1053F000243278F54181552747FD509588E890E0A3
:10540000841B950B880F991F880F991F68177907C0
:1054100084F04281552747FD509588E592E0841B32
:10542000950B880F991F880F991F681779070CF43F
:10543000CB014FB7F89430E0F901EE0FFF1FE20FF8
:10544000F31FE958F84F0297880F991F92838183C1
:105450004FBF0895089508958130910539F480E48F
:1054600098E06AE674E00E9409500895009721F4DC
:1054700080E498E00E94974F08952091E6073091CC
:10548000E707F901EE0FFF1FE851F84F9183808382
:105490002F5F3F4F3093E7072093E60708950F9360
:1054A0001F938C01FC0120E735E021933193CF015C
:1054B0006AE674E00E940950C8010E943D2A1F91CB
:1054C0000F910895AF92BF92CF92DF92EF92FF9229
:1054D0000F931F93CF93DF9358EEE52E57E0F52EF1
:1054E000CCEFD7E000E010E01FC00E9443465B0114
:1054F0006C01D7018D919D917D01DC01ED91FC91B5
:105500000280F381E02D19950E9443466A197B09B8
:105510001616170634F488819981860F971F998390
:1055200088830F5F1F4F22968091E6079091E707CF
:1055300008171907D4F2DF91CF911F910F91FF90B7
:10554000EF90DF90CF90BF90AF9008950F931F938F
:10555000CF93DF9308EE17E0C0E0D0E00CC0D80195
:105560008D919D918D01DC01ED91FC910190F08177
:10557000E02D199521968091E6079091E707C817CD
:10558000D9076CF3DF91CF911F910F910895CF93BD
:10559000DF93C6E5D1E1CE016FE373E00E94154DC4
:1055A00040911008509111086091120870911308F1
:1055B000CE0122E030E00E94944FCE016BE30E94C6
:1055C0006E4DCE0169E373E00E94154D40911408C1
:1055D000509115086091160870911708CE0122E0CD
:1055E00030E00E94944FCE016BE30E946E4DCE01DD
:1055F00063E373E00E94154D40911808509119081B
:1056000060911A0870911B08CE0122E030E00E94E0
:10561000944FCE016BE30E946E4DCE016DE273E0BC
:105620000E94154D40911C0850911D0860911E0864
:1056300070911F08CE0122E030E00E94944FCE010D
:105640006BE30E946E4DCE0168E273E00E94154D3F
:1056500040912408509125086091260870912708F0
:10566000CE0122E030E00E94944FCE016BE30E9415
:105670006E4DCE0162E273E00E94154D409120080C
:10568000509121086091220870912308CE0122E0F8
:1056900030E00E94944FCE016BE30E94C44DDF9135
:1056A000CF9108950F931F93CF93DF9386E591E1F8
:1056B00063E173E00E94154D86E591E160912A0552
:1056C0004AE050E00E945E4E86E591E16BE30E9465
:1056D000C44D86E591E16CE073E00E94154D609148
:1056E0002B0570912C0586E591E14AE050E00E947F
:1056F000B94E86E591E16BE30E946E4D86E591E13E
:1057000065E073E00E94154D60912D0570912E05A6
:1057100086E591E14AE050E00E94B94E86E591E1CC
:105720006BE30E94C44D86E591E16FEF72E00E9449
:10573000154D4091300850913108609132087091B8
:10574000330886E591E122E030E00E94944F86E53F
:1057500091E16BE30E946E4D86E591E169EF72E0A5
:105760000E94154D409134085091350860913608DB
:105770007091370886E591E122E030E00E94944F75
:1057800086E591E16BE30E946E4D86E591E163EF62
:1057900072E00E94154D409138085091390860918F
:1057A0003A0870913B0886E591E122E030E00E94E2
:1057B000944F86E591E16BE30E946E4D86E591E1A1
:1057C0006DEE72E00E94154D40913C0850913D08ED
:1057D00060913E0870913F0886E591E122E030E05B
:1057E0000E94944F86E591E16BE30E946E4D86E541
:1057F00091E168EE72E00E94154D86E591E16BED56
:1058000072E00E94154D86E591E16BE30E946E4DBA
:1058100086E591E165ED72E00E94154D86E591E126
:1058200069EC72E00E94154D86E591E166EC72E04C
:105830000E94154D86E591E16DEB72E00E94154DD9
:1058400086E591E16AEB72E00E94154D86E591E1F3
:1058500064EB72E00E948B4D86E591E16BE30E9460
:105860006E4D86E591E16EEA72E00E94154D409121
:105870004708509148086091490870914A0886E5A8
:1058800091E122E030E00E94944F86E591E16BE3E4
:105890000E94C44D86E591E168EA72E00E94154DD0
:1058A000409128085091290860912A0870912B088E
:1058B00086E591E122E030E00E94944F86E591E197
:1058C0006BE30E946E4D86E591E162EA72E00E9410
:1058D000154D40912C0850912D0860912E08709123
:1058E0002F0886E591E122E030E00E94944F86E5A2
:1058F00091E16BE30E94C44D86E591E16CE972E0B1
:105900000E94154D0CEF17E0C0E0D0E017C086E50F
:1059100091E1BE014AE050E00E94B94E86E591E176
:105920006CE70E946E4DF801619171918F0186E5DF
:1059300091E14AE050E00E94404E21968091E607B6
:105940009091E707C817D90714F386E591E16BE357
:105950000E94C44DDF91CF911F910F91089581E076
:1059600090E00E942C2A089580E090E00E942C2A6A
:1059700008958BE061E00E948248A0E8B0E01C92AC
:10598000E1E8F0E010828C9182688C9380818A61DA
:10599000808380E49CE9909387008093860088EB65
:1059A0009BE09093890080938800809158089091A3
:1059B00059088860909359088093580808956F9209
:1059C0007F928F929F92AF92BF92CF92DF92EF928F
:1059D000FF920F931F93CF93DF936C01EB013C0178
:1059E000661A770AB301882777FD8095982F0E9461
:1059F000C352B62EA72E982E892E01E010E0A501E5
:105A00009401652F742F832F922F20E030E0A9019D
:105A10000E94FD53181614F000E010E091E0E92E0A
:105A2000F12CA5019401652F7A2D832F982D20E06C
:105A300030E0A9010E94215287FD02C0EE24FF241C
:105A40000E191F09CC16DD0639F477FE08C07094D4
:105A500061947108739403C081E0682E712C609E7C
:105A60009001619E300D709E300D11242C0F3D1F52
:105A7000C901DF91CF911F910F91FF90EF90DF90BF
:105A8000CF90BF90AF909F908F907F906F90089530
:105A9000DF93CF930F92CDB7DEB76983CE01019626
:105AA0006BE674E00E94563A882399F08091810851
:105AB000909182089C01285E334043E0293E3407E0
:105AC00040F49093300580932F0590932E0580939A
:105AD0002D0580912F0590913005609131057091D1
